:020000040800F2
:1000000000120020610E0008AB3E00084D0E0008F3
:100010004D0E00084D0E00084D0E000800000000B7
:10002000000000000000000000000000A10E000819
:100030004D0E00080000000089100008D51C0008C3
:1000400021110008211100082111000821110008C8
:1000500021110008211100082111000821110008B8
:1000600021110008211100082111000821110008A8
:100070002111000821110008211100082111000898
:100080002111000821110008211100082111000888
:100090002111000821110008211100082111000878
:1000A0002111000821110008211100082111000868
:1000B0002111000821110008211100082111000858
:1000C0002111000821110008211100082111000848
:1000D0002111000821110008211100082111000838
:1000E0002111000821110008211100082111000828
:1000F0002111000821110008211100082111000818
:100100002111000821110008211100082111000807
:1001100021110008211100082111000821110008F7
:1001200021110008211100082111000821110008E7
:1001300021110008211100082111000821110008D7
:1001400021110008211100082111000821110008C7
:1001500021110008211100082111000821110008B7
:08016000211100082111000823
:10016800844641EA000313F003036DD1403A41D3BA
:1001780051F8043B40F8043B51F8043B40F8043B79
:1001880051F8043B40F8043B51F8043B40F8043B69
:1001980051F8043B40F8043B51F8043B40F8043B59
:1001A80051F8043B40F8043B51F8043B40F8043B49
:1001B80051F8043B40F8043B51F8043B40F8043B39
:1001C80051F8043B40F8043B51F8043B40F8043B29
:1001D80051F8043B40F8043B51F8043B40F8043B19
:1001E80051F8043B40F8043B51F8043B40F8043B09
:1001F800403ABDD2303211D351F8043B40F8043BA9
:1002080051F8043B40F8043B51F8043B40F8043BE8
:1002180051F8043B40F8043B103AEDD20C3205D3B8
:1002280051F8043B40F8043B043AF9D2043208D0B0
:10023800D2071CBF11F8013B00F8013B01D30B8822
:1002480003806046704700BF082A13D38B078DD000
:1002580010F003038AD0C3F10403D21ADB071CBFD2
:1002680011F8013B00F8013B80D331F8023B20F83C
:10027800023B7BE7043AD9D3013A11F8013B00F875
:10028800013BF9D20B7803704B7843708B788370FD
:100298006046704753B94AB9002908BF00281CBFF7
:1002A8004FF0FF314FF0FF3000F00CB8ADF1080C03
:1002B8006DE904CE00F008F8DDF804E0DDE902237A
:1002C80004B07047704700BF2DE9F0478C468E4652
:1002D800089E154604461946002B40F0D08072450A
:1002E80047D9B2FA82F74FB1C7F120030EFA07FCDB
:1002F80020FA03F3BD4043EA0C0CBC404FEA154E0C
:10030800A8B2BCFBFEF8230C0EFB18CC08FB00F9C6
:1003180043EA0C43994528D9EB1808F1FF3204D277
:10032800994502D9A8F102022B44A3EB0903A4B210
:10033800B3FBFEFC0EFB1C330CFB00F044EA034449
:10034800A04214D92C190CF1FF3304D2A04202D9CF
:10035800ACF102032C44241A43EA02401EB1FC40CB
:10036800002334607360BDE8F0874246DDE76346EA
:10037800F1E7002A79D0B2FA82F3002B3FD0194670
:10038800C1F1200302FA01F52EFA03F20EFA01FE7A
:1003980020FA03F343EA0E034FEA154E00FA01F47C
:1003A800B2FBFEFCAFB20EFB1C201A0C0CFB07F8CC
:1003B80042EA004290455AD9AA180CF1FF3004D2FB
:1003C800904502D9ACF102002A44A2EB08029BB284
:1003D800B2FBFEFC0EFB1C220CFB07F743EA0243B0
:1003E8009F4246D9EB180CF1FF3204D29F4202D942
:1003F800ACF102022B44DB1B42EA004202E0AEEB06
:10040800020301224FEA154EAFB2B3FBFEFC200CEB
:100418000EFB1C330CFB07F840EA034398452AD926
:10042800EB180CF1FF3004D2984502D9ACF1020068
:100438002B44A3EB0803A4B2B3FBFEFC0EFB1C3356
:100448000CFB07F744EA0344A74216D92C190CF110
:10045800FF3304D2A74202D9ACF102032C44E41BB7
:1004680043EA00400F46114678E71F2188E76046B7
:10047800ABE76246BFE76046DBE76346EFE77345F5
:1004880006D916B9002108466DE7C6E9000EF9E756
:10049800B3FA83F787B9734501D3824207D8841A20
:1004A8006EEB030301209C461EB900215BE738462A
:1004B800FAE7C6E9004CF8E7C7F1200CBB4022FA7E
:1004C8000CF51D4320FA0CF12EFA0CF30EFA07FE78
:1004D80041EA0E014FEA154900FA07F4B3FBF9F8AF
:1004E8001FFA85FE09FB18300B0C08FB0EFA43EACD
:1004F80000439A4502FA07F240D9EB1808F1FF3099
:1005080004D29A4502D9A8F102002B44A3EB0A03AE
:1005180089B2B3FBF9F809FB183308FB0EFE41EA70
:1005280003418E452CD9691808F1FF3304D28E4552
:1005380002D9A8F10203294443EA0040A0FB02982B
:10054800A1EB0E014145CE46434602D306D14C45A8
:1005580004D2B9EB020E68EB05030138002EA4D0D3
:10056800B4EB0E0261EB030101FA0CFC22FA07F36B
:100578004CEA0303F940C6E9003196E74046C5E76F
:100588004346D9E738B5836805699C697CB112F49C
:10059800000F06D02D6801238B401D4201D082F048
:1005A800C062044B134002F0B072A04738BD6FF030
:1005B8005700FBE74000000608B501F06DFC014656
:1005C800014803F070FB08BD8853000838B53F4860
:1005D80004F0E0FA002842D04FF001120D213B4808
:1005E80003F05FFA0146002840D14FF0B8620D21B0
:1005F8003648FFF7C7FF054600283ED13449354B3A
:100608004B604FF400538B60304C204603F0B7FA30
:100618000D222168304803F046FB304B186818B1AA
:1006280004F0B8FA002830D02C4B1B6883B14FF483
:1006380000312A4803F05DFA014600282FD0274CE4
:10064800226823791268264803F02DFB00232360D3
:10065800244803F028FB214B1B685BBB04E01B4BC1
:100668001968214803F01FFB002038BD0D23174AE5
:1006780012681E4803F017FBF6E70D23134A1268A9
:1006880001461B4803F00FFBEEE7144C23681A6879
:100698002946184803F007FB00232360C4E70F4BE3
:1006A80019681A790968144803F0FDFAD0E701209F
:1006B80003F06FFA0D21054803F032FA021EF6DB4B
:1006C800064B1979186803F04DFAF0E7E04F000877
:1006D800B0020020C10500082C54000800000020CA
:1006E8007C540008CC540008A0530008C8530008E4
:1006F800F453000848540008B054000808B5024BE9
:100708001B68984708BD00BF08000020014B18600F
:10071800704700BF0800002000B585B084460A462F
:1007280068460023009301930293039302238DF8F4
:100738000230044B0193614602F0D8FC05B05DF825
:1007480004FB00BF0507000880B505460E4617469E
:10075800984602F00BF9034600F0EEFC0446DFF879
:10076800189049F80030424639463046A84754F8B0
:10077800090000F06BFC00BF08000000034A536842
:1007880023F0020353600020704700BF002004E0FC
:1007980008B50B4641680C31012B14D00AD833B97F
:1007A8000F4B9B685B68C3B10D48984707E06FF033
:1007B800850004E0023BDBB2012B01D8002008BD14
:1007C8006FF08500FBE7064B9B681B6813B1044874
:1007D8009847F4E76FF05700F1E76FF05700EEE73E
:1007E8001C4F000808B5024903F06CFA08BD00BFA9
:1007F8009907000810B5192808D8064B53F8204067
:10080800204604F0C7F918B1204610BD0024FBE7C4
:100818000024F9E7F05A0008084B1A6842F480727D
:100828001A601A6842F400721A601A6842F4806208
:100838001A60034B034A1A60704700BF003C02402D
:10084800440000200024F400014B0360002070479E
:10085800585B000808B50348034A121A002103F040
:1008680012FB08BD700000201C04002008B50648D3
:10087800064A121A064903F00AFB0648064A121AE3
:10088800064903F004FB08BD0000002070000020AA
:100898006C5C000800000020000000206C5C000870
:1008A80010B50446836842680168094803F0FBF9FB
:1008B80063692269E168074803F0F5F9E1690648C8
:1008C80003F0F1F9A169054803F0EDF910BD00BF87
:1008D8006055000890550008C0550008D05500081C
:1008E80038B504460D4611B10846FFF7D9FF012C6B
:1008F80004D02946204601F09DFB38BDEFF3058161
:100908001039024803F0CFF9F3E700BF005600089A
:1009180030BFFFF7FDBF00BF38B50446054D2A4676
:100928000549FFF71DFC054A0021601902F0CAFAC3
:1009380038BD00BF0000000080530008040000001C
:1009480070B50646064D074B1D444C1B2046FFF765
:10095800E3FF083CC6F8A44005F1080070BD00BFDD
:1009680000000000040000008169104B5A6942F43D
:1009780080725A61BFF34F8FBFF36F8F31F8021C3B
:100988005A6922F480725A61BFF34F8FBFF36F8F99
:1009980001F47F43B3F55F4F01D000207047C9B21F
:1009A800022901D0002070470120704700ED00E0C7
:1009B8004FF0000C83F800C002F07F4CBCF17F4F71
:1009C80012D102F00C0CBCF1080F04D012F0080F81
:1009D80007D00846704708B5044803F064F90020BA
:1009E80008BD01221A70704700207047145600088D
:1009F800F8B505460F4614462F4803F054F92F4B17
:100A08009B6A13F4805F25D116262C4B9B6A13F43E
:100A1800006F24D1294B9B6A13F4007F24D1274B04
:100A28009B6A13F4806F37D1244B9B6A13F4807F41
:100A380037D1224B9B6A13F4005F37D11F4A936A60
:100A480043F47F4393620121284603F030FA207073
:100A58003046F8BD1A4803F026F91726D5E7194895
:100A680003F021F91826D5E7174803F01CF9134BB2
:100A7800996B9B6A13F4004F01D11926CFE71348ED
:100A880003F011F937B10D4A936A23F400439362D6
:100A98001926C4E71926C2E70D4803F004F91A26F7
:100AA800C2E70C4803F0FFF81B26C7E70A4803F023
:100AB800FAF81C26C2E700BF4056000800ED00E027
:100AC800585600086C560008805600089C560008C6
:100AD800B4560008D0560008EC56000808B524485B
:100AE80003F0E1F8234B9B6A13F0007F21D11D200E
:100AF800204B9B6A13F0807F20D11E4B9B6A13F416
:100B0800002F20D11B4B9B6A13F4802F20D1194B47
:100B18009B6A13F4003F20D1164B9B6A13F4803F65
:100B280020D1144A936A6FEA03436FEA134393622E
:100B380008BD114803F0B7F81E20D9E70F4803F0A5
:100B4800B2F81F20D9E70E4803F0ADF82120D9E705
:100B58000C4803F0A8F82220D9E70B4803F0A3F8C3
:100B68002320D9E7094803F09EF82420D9E700BFDD
:100B78001C57000800ED00E0385700084C570008E3
:100B88006857000888570008B0570008CC57000875
:100B980008B500230B70024803F085F808BD00BFB4
:100BA800F857000808B50A460F2905DC0349103A2A
:100BB800034803F078F808BD0249F8E72058000810
:100BC80054580008385800082DE9F04104460F46EB
:100BD80015463F4803F067F83E4B9B6A13F0100F29
:100BE8003CD110263B4B9B6A13F0080F3BD1394B85
:100BF8009B6A13F0020F3BD16FF01508354B9B6AC7
:100C080013F0010F50D1334B9B6A13F0200F50D1D2
:100C1800304B9B6A13F0100F04D12E4B9B6A13F0D4
:100C2800020F04D02B4B5B6813F4006F46D1294B9D
:100C38009B6A13F0200F04D0264A536A23F400530A
:100C48005362244A936A43F0FF03936201212046CA
:100C580003F02DF928703046BDE8F0811E4803F0F6
:100C680022F81126BEE71D4803F01DF81226BEE73C
:100C78001B4803F018F8174BD3F834809B6A13F01D
:100C8800800F03D16FF015081326B7E741461548C2
:100C980003F009F837B10F4A936A23F0800393628F
:100CA8001326ABE71326A9E70F4802F0FCFF14262A
:100CB800A9E70E4802F0F7FF1526A9E721464046A6
:100CC80003F02DF90028B2D080F309880226AEE798
:100CD8006858000800ED00E0805800086C560008CD
:100CE800B4580008D0580008E8580008EC56000826
:100CF80070B506460D46264802F0D5FF00232B7036
:100D0800244BDC6A14F002040AD1224BDB6A002B64
:100D18000BDB204BDC6A14F080440AD1204670BDFE
:100D28001D4802F0C0FF0024F8E71C4802F0BBFF92
:100D3800F4E71B4802F0B7FF3046FFF715FE98B9F5
:100D4800144B9B6A13F0FF0F14D1124B9C6A14F4D6
:100D58007F4416D10F4B9B6AB3F5803FDED33046F4
:100D6800FFF7BCFE0446D9E731680E4802F09BFF46
:100D78003468D3E72A4601213046FFF725FF0446A9
:100D8800CCE72A4601213046FFF732FE0446C5E784
:100D98000859000800ED00E02059000844590008EF
:100DA800545900087459000830B58BB01E4B5D6863
:100DB800C5F30805002383F31188BFF36F8F0DF186
:100DC8002603FFF7F5FD04460DF12702294603F037
:100DD80070F89DF827300BB10BB030BD05460DF10A
:100DE800040C20686168A268E368ACE80F00206919
:100DF8006169A269E369ACE80F009DF826304BB140
:100E0800089BC3F308024AB96FEA53236FEA4323E6
:100E1800089303E0089B6FF30803089301A9284689
:100E2800FFF75EFDD8E700BF00ED00E0044B5A690C
:100E380042F010025A615A6922F008025A6170475A
:100E480000ED00E0EFF30880EFF3098101B5724689
:100E5800FFF7AAFF01BD00BF0C4880F308880020F7
:100E68000B490870102080F311880A484FF4046178
:100E7800401880F30988EFF314800221084380F3B7
:100E88001488BFF36F8F00F049F8000000120020AB
:100E980019040020400400201EF0040F0CBFEFF3DB
:100EA8000880EFF30980816911F8021C0229FFD03C
:100EB80001B5724602F0EFFF01BD00BF002807DB55
:100EC80000F01F02400901239340024A42F82030F3
:100ED800704700BF00E100E0002808DB0901C9B243
:100EE80000F1604000F5614080F80013704700F0A1
:100EF8000F000901C9B2014B1954704714ED00E005
:100F0800044B23F07F03044A9360BFF34F8FBFF372
:100F18006F8F70470000000800ED00E008B5FFF78C
:100F2800EFFF0B4AD2F8883023F47003C2F88830F8
:100F3800EFF3148323F0040383F31488BFF36F8F54
:100F4800FFF788FCFFF792FC00F0CCF801F090F96D
:100F580000ED00E0104B9B68BBB110F1160F0BD0F1
:100F6800D3F89420A2F1400C844510D8824210D9BD
:100F78008A4207D800207047D3F894208A4201D8C3
:100F880000207047D3F89400704700207047002075
:100F980070470020704700BFE403002010B4A2F19E
:100FA80020040E4942F8081C21F0010142F8081CEF
:100FB80042F8203C019B42F81C3C029B42F8183C3A
:100FC800039B42F8143C4FF0807342F8043C0465DC
:100FD8000023C0F8A83010BC704700BF51070008B4
:100FE80008B50E4615460C4A9060D0F8A4200B4B65
:100FF8001A6000F0B5F82C4686F309880020044BE7
:1010080098472046002100220023024C2047000078
:10101800353F000851070008E40300203C03002086
:10102800014B10221A61704700ED00E0054B5A6928
:101038009B689A4204D0044A536843F08053536033
:10104800704700BFE403002000ED00E008B50A4B3C
:101058009B68834202D001F08FFC08BDEFF3058343
:10106800002BF8D0054B5A6842F080525A605A6AF1
:1010780022F400425A62EEE7E403002000ED00E0AB
:1010880015498A684FF030001044EFF3098C80E866
:10109800F01F102080F31288BFF36F8F0F4F4FF0AF
:1010A80000664A698A603E60D2F8A4000C4C206051
:1010B800D2F8A8000023C2F8A83080F3118804B53C
:1010C800104600F04DF8BDE8044002F1300090E809
:1010D800F01F8CF309887047E403002004ED00E05A
:1010E8003C030020002206E003F00F0309491944DD
:1010F80010230B760132492A0ADC53B2002BF3DBAA
:1011080003F1604303F56143102183F80013F1E70D
:10111800704700BFFCEC00E008B5EFF30583103B17
:10112800044A02EBC301496852F833008847FFF7C5
:101138007DFF08BD8850000801480068704700001E
:101148003C03002008B5034B034A0121034803F080
:1011580054F808BD0080012000000020585B0008FA
:1011680008B5D0F89430403B0448036040234360FE
:10117800034B8360012103F044F808BD40030020BD
:1011880000000B15084AC2F898000B6823F01F03EB
:10119800034343F01003C2F89C308B6843F001030B
:1011A800C2F8A030704700BF00ED00E0084BD3F84C
:1011B8009030C3F30723013B984205D810B5044685
:1011C800FFF7E0FF204610BD6FF01500704700BF25
:1011D80000ED00E010B5034C0123227802F0EAFE8E
:1011E800207010BD1804002008B500230B4A12789F
:1011F80002F0E0FE10F1160F0FD0024606E0084B91
:10120800C3F898200021C3F8A0100132044BD3F88A
:101218009030C3F307239342F1DC08BD1804002083
:1012280000ED00E0044B0522C3F89420BFF34F8F74
:10123800BFF36F8F704700BF00ED00E0BFF35F8F13
:10124800024B0022C3F89420704700BF00ED00E075
:1012580038B51C4B1D681C4BD3F89030C3F30723DB
:101268009D422BD8FFF7EAFF002409E0154B5B6885
:1012780004EB440103EB81012046FFF783FF0134AF
:10128800A542F3D81148057002F0BCFE10F1160F04
:1012980013D00E4B1A780C4BD3F89030C3F30723B6
:1012A8009A4207DA084BC3F898200021C3F8A01027
:1012B8000132F0E7FFF7B6FF002038BD4FF0FF30EE
:1012C800FBE700BF645B000800ED00E018040020A5
:1012D80008B5024B1B689847002008BD4C03002046
:1012E800034B1860034A937843F0020393707047E6
:1012F8004C0300200C00002008B5064921F0070126
:10130800C1F1005202F5C032034802F085FC00200A
:1013180008BD00BF471200205003002000B583B06D
:10132800094B93E8030002AB03E90300074B9B68F2
:101338001B682BB169460548984703B05DF804FB64
:101348006FF05700F9E700BF805300081C4F0008F2
:1013580000F01F02012393401F2806D8044A52694F
:1013680093430CBF0120002070470020704700BF46
:10137800003C014000F01F02012393401F2803D8BE
:10138800034A5361002070476FF01500704700BF93
:10139800003C0140002399420ADD10B400EB030C25
:1013A800044C04F80C2001339942F7DC10BC704758
:1013B800704700BF1C000020F8B50746002401E074
:1013C8000134E4B27B78A34217D93D7866193046D8
:1013D800FFF7BEFF0028F3D03046FFF7CBFF074BDF
:1013E80053F83620002AEBD006F01F0503EBC6039E
:1013F80059680120A8409047E2E7F8BD5C03002047
:101408005FFA81FC0CF102020A4B53F822200B0C04
:1014180022EA114193FAA3F34BB1B3FA83F398404C
:1014280001430CF1020C034A42F82C1070472023A8
:10143800F5E700BF00380140C3B20233074A52F84B
:101448002320030C02EA104093FAA3F31BB1B3FA6A
:1014580083F3D84070472023FBE700BF00380140E2
:1014680008B5034668B1B0FA80F2C2F11F02D2B2E1
:1014780005498856054A11680B43136002F03EFD82
:1014880008BDFF22F4E700BF1C000020003C01401B
:10149800024A136823EA000313607047003C0140C6
:1014A800032926D8DFE801F0020C151E114B9A68B3
:1014B80022EA00029A60DA6822EA0002DA607047DB
:1014C8000C4B9A6802439A60DA6822EA0002DA60F2
:1014D8007047084BDA680243DA609A6822EA000229
:1014E8009A607047034B9A6802439A60DA6810431F
:1014F800D8607047003C014010B498B1B0FA80F34E
:10150800C3F11F03DBB29C460D4850F833008842F4
:101518000AD088B90A4B43F83C1003EBCC035A6055
:1015280010BC7047FF23EEE7054C04EBC3035B6870
:101538009342EED10020F3E76FF00F00F0E700BF11
:101548005C03002060B1B0FA80F3C3F11F03DBB283
:10155800044A002142F8331002EBC302516070477D
:10156800FF23F5E75C0300200C4B1B6813F0020F08
:1015780009D10A4A136843F001031360074B1B683B
:1015880013F0020FFAD0054A936823F0030393601F
:10159800024B9B6813F00C0FFAD1704700380240D9
:1015A8000C4B1A6842F480221A601A6842F480329E
:1015B8001A60084B1B6813F4003FFAD0054A536FB2
:1015C80043F001035367034B5B6F13F0020FFAD02C
:1015D800704700BF00380240F8B50C461546424B2C
:1015E8001E680221304602F089FE07460121304676
:1015F80002F084FE2388C3F30B010B46442929D843
:1016080009B2002968D0013B432B68D8DFE803F012
:101618003D53565A5D3F49676767676767676767FE
:10162800676767676062676767676767676767674E
:101638006767676767676767676767676767673564
:1016480067676735676767376767676767676739B2
:101658006767673BA8290DD12E602368B3F5805FC3
:1016680040D32A68C3F313330133B2FBF3F22A6081
:10167800002036E06FF0850033E02E60EDE72E6045
:10168800EBE72F60E9E72860E7E72E60E5E700F081
:10169800CFF804234FF4A872082102F028FE28602E
:1016A800DBE700F0C5F807234FF4A872082102F021
:1016B8001EFE2860D1E700232B60CEE74FF4FA43E3
:1016C8002B60CAE700232B60C7E7084B2B60C4E7F1
:1016D8002E60C2E72E60C0E76FF0850001E06FF072
:1016E8008500F8BD0020FCE74400002000127A00C5
:1016F80008B51B4B9B6803F00C03082B27D0184A2E
:10170800136823F080731360154B1B6813F0007F78
:10171800FAD1144AD2F8043823F4403343F480331E
:10172800C2F80438D2F8043823F0706343F0E06359
:10173800C2F8043800F080F8094A136843F080734F
:101748001360074B1B6813F0007FFAD008BDFFF742
:101758000BFF034A936823F0F0039360CFE700BFC1
:101768000038024000300240162806D8064BC34015
:1017780013F0010F04D0002070476FF08500704708
:101788006FF08500704700BFEA00600038B500F0D0
:1017980077F8234C204602F02EFE00F091FB214BF7
:1017A8009B68C3F30313204AD35C20FA03F513782C
:1017B8001C41A5422CD3FFF7F3FEFFF799FF194A06
:1017C800936823F0F0039360936823F0030343F0D6
:1017D80002039360134B9B6803F00C03082BF9D1A9
:1017E800A54219D2114B0E4A1A600E4B9A6822F480
:1017F800E05242F480529A609A6822F460429A60F9
:10180800D3F88C2022F08072C3F88C20002038BDD9
:10181800204600F0C3FBCEE7204600F0BFFBE1E71F
:1018280000BD010500380240445C00084400002067
:101838000048704700127A0008B502F0DDFD0C4B35
:1018480059680C4A0A4040F4A84141F008010A438B
:101858005A605A6822F4403242F480325A60596819
:10186800054A0A40054901430A435A6008BD00BFBA
:10187800003802400080BFFF0080BFF00854000716
:1018880082B0064B1A6C42F080521A641B6C03F04B
:1018980080530193019B02B0704700BF003802409B
:1018A80010B504460A2806D0E1B2064883685B688A
:1018B8009847204610BD034883685B680D21984708
:1018C800F2E700BF5050000810B5044C2046FFF75F
:1018D80007FD2046FEF71AFF10BD00BFA918000833
:1018E80008B5054803F056F918B1FFF7EDFF0020D9
:1018F80008BD6FF01200FBE7505000082DE9F843CF
:1019080080460F4616461C46D0F80490D9F80800C1
:1019180002F0CDFCB6F5001F0ED00546B6F5800FD7
:101928002AD0B4F1806F0ED0B4F1C06F0DD0B4F1ED
:10193800007F24D1022609E03946D9F8080002F0D0
:101948002FFE002415E0012600E0032642460F4939
:101958002846FFF7D1FD0446A0B9D9F80810384643
:1019680002F0AAFC31462846FFF79AFD2846FFF701
:1019780077FD2046BDE8F8836FF08504F9E76FF03E
:101988001504F6E76FF00F04F3E700BFCB44000837
:1019980010B50446B2F5004F2FD04FF0000C481890
:1019A8004CEB0C0C40184CF1000C4FEACC0C4CEAF8
:1019B800507CC00040184FEA83024FEA93734CF101
:1019C8000001FEF767FC2449A1FB00235B091A010B
:1019D80092B24FF0640C0CFB13031B013233A1FBD2
:1019E8000313C3F34F1303F0F0010A4492B203F058
:1019F8000F0313449BB2A36010BD4FF0000C4818AE
:101A08004CEB0C02401842F10002D20042EA50723C
:101A1800C000401842F10001DA184CEB0C03FEF745
:101A280039FC0D49A1FB00235B091A0192B24FF062
:101A3800640C0CFB1303DB003233A1FB0313C3F369
:101A48004F13590001F4F8710A4492B203F00703E6
:101A580013449BB2A360CFE71F85EB5170B582B0EA
:101A680043681D68002943D00E4658681969836881
:101A7800DB68002B39D001AA9847002833DBEB68D4
:101A880023F40043EB60019C00212019494100190F
:101A980041F10001C90041EA5071C00000194FEA44
:101AA80086024FEA967341F10001FEF7F3FB134AF1
:101AB800A2FB00314909642303FB11031B013233E4
:101AC800A2FB03235B0903F0F00202EB011203F00F
:101AD8000F0313440F2B0ED9334600222146284604
:101AE800FFF756FF002002B070BD6FF05700FAE70D
:101AF8006FF01500F7E76FF01500F4E71F85EB515D
:101B08002DE9F0410C4643681D6803691E680B798E
:101B1800012B04D0022B0DD14FF4806801E04FF463
:101B2800C0686279012A08D0022A08D01ABB4FF48B
:101B3800805706E04FF00008F3E7002701E04FF474
:101B4800405794F806C0BCF1040F17D0CBB94FF03A
:101B5800000ED91EC9B2012952D913B1BCF1040F24
:101B680051D0B7F5805F0FD0B7F5405F0ED0002F8A
:101B78003BD101230BE04FF40057E2E74FF4805EBE
:101B8800E7E74FF4805EE4E7002300E002239A428F
:101B98003CD1BEF1000F2AD1B8F1000F2ED103239A
:101BA8009C4536D1E37963B1012B35D11F4B9D425A
:101BB80007D0A3F54C439D4203D003F550439D4203
:101BC8002DD1EB6823F40053EB60214602F0F3FDBE
:101BD800002827DBEB6843F40053EB6094E803002C
:101BE80086E803000020BDE8F0810323CFE7B8F1C1
:101BF800000F01D10423D3E70323D1E70223CFE762
:101C08006FF08500EFE76FF08500ECE76FF0850077
:101C1800E9E76FF08500E6E76FF08500E3E76FF02E
:101C28008500E0E76FF08500DDE700BF00100140A8
:101C380008B5024A02F09AFE08BD00BFE349000851
:101C480008B5024A02F0ACFE08BD00BFE949000829
:101C58004FF0E023996918699A6909B90C4B19681A
:101C68000AB90B4B1A6810F4803F01D1914208D28F
:101C780008490B680648006803440B604FF0E023EE
:101C88001B69034B1B689B1A024A1068184470476B
:101C9800E0030020DC030020094B102283F82320F6
:101CA800084B42F2D0021A600020074B18604FF030
:101CB800E02342F2CF025A61986107221A61704705
:101CC80000ED00E0E0030020DC030020684620F07F
:101CD80007018D4619B5FFF7BBFF12480368124A82
:101CE800516814681B1941F100011360516000220A
:101CF80002600E490A68981A0D4BA3FB0030400B8E
:101D080042F2D00300FB03F3D2184B6843F10003FF
:101D18000A604B6002F01AFFFFF788F9BDE8194026
:101D280085467047DC030020780000207000002002
:101D38002D34A9F9F8B500294DD0B0F1FF3F3FD0B7
:101D48003F4B1C6801284EDD40F2CD739842A8BF76
:101D58001846461EEFF31185102383F31288BFF34C
:101D68006F8FFFF775FF4FF0E0239F69354A1368BF
:101D78005168C31841F10001136051600021324AD3
:101D88001160324A11685A1A2FD442F2D00000FB6F
:101D9800062202F503520F322D4EA6FB0262520BA9
:101DA800C91A00FB02110A46B1F5806F38BF4FF41B
:101DB8008062284B994236D9214B264A1A6018E08E
:101DC8004FF0E022136923F0010313611C4B4FF01D
:101DD8007F421A6026E01A4B1C68B0F1FF3FB1D170
:101DE80040F2CC70B0E70026B4E7154B4FF48062A0
:101DF8001A604FF0E0239969114A1268013A5A6152
:101E080000229A618F4211D2641A3C440D4A136829
:101E180051681B1941F100011360516085F3118865
:101E2800BFF36F8FF8BD064B1A60E2E77F1A054AC9
:101E380013685168DB1941F1000113605160EDE747
:101E4800E003002078000020DC0300207000002060
:101E58002D34A9F9C0D5FF0038B5EFF3118510234B
:101E680083F31288BFF36F8F084B1C68084B1B68FD
:101E7800E41AFFF7EDFE204485F31188BFF36F8F56
:101E8800044BA3FB0030400B38BD00BF7800002096
:101E9800700000202D34A9F938B5EFF3118510230F
:101EA80083F31288BFF36F8F044B1C68FFF7D0FED3
:101EB800204485F31188BFF36F8F38BD7800002068
:101EC80008B5334B9B6803F00C03042B5BD0082B3D
:101ED8005BD12F4B5A6802F03F025B6813F4800F06
:101EE8002CD02B4B5868C0F388104FEA401CBCEB31
:101EF800000C6EEB0E0E4FEA8E1343EA9C634FEA1A
:101F08008C11B1EB0C0163EB0E03DB0043EA517358
:101F1800C90011EB000C43F10003590200234FEAFA
:101F28004C2041EADC51FEF7B5F9194B5B68C3F365
:101F3800014301335B00B0FBF3F008BD144B586854
:101F4800C0F388104FEA401CBCEB000C6EEB0E0E81
:101F58004FEA8E1343EA9C634FEA8C11B1EB0C01F4
:101F680063EB0E03DB0043EA5173C90011EB000C6D
:101F780043F10003990200234FEA8C2041EA9C5167
:101F8800FEF788F9D1E70348D7E70348D5E700BF4C
:101F98000038024000127A000024F40002460028AB
:101FA8003CD0204B19681B6803F44043B3F5004F3D
:101FB8001BD000211B4B1B6803F44043B3F5804F33
:101FC8001FD0194A136823F007030B43136002223A
:101FD800154B1B6803F00703013A994201D0002A08
:101FE800F6D199421CD001207047104B984204D872
:101FF8000F4B984203D80021DCE70221DAE70121E0
:10200800D8E70A4B9A4200D931B1094B9A42D8D93C
:102018000029D6D10121D4E70221D2E70120704757
:102028000020704700700040003C02400087930386
:1020380080C3C90138B5EFF31185102383F31288E3
:10204800BFF36F8F054B9C6802F0BCFD85F31188C8
:10205800BFF36F8F2046FEF7F9FF38BDE403002079
:1020680010B586B0B023114C03FB004400EB400CC4
:1020780000EB80000E4B03EB80030E4A0592012211
:1020880004920F22039200220292019200930A4BBB
:102098004FF4A072094901EBCC11204600F024F955
:1020A800237C23F00403237406B010BD80000020B5
:1020B800E4030020085A0008D34B0008800C0020D5
:1020C80038B505460B4B53F8204002E02368984783
:1020D80008346B1C074A52F82330A34209D96068B8
:1020E8000028F3D0037E13F0010FF1D102F039FD7F
:1020F800EEE738BD545C000808B553EA020102D186
:1021080000F010FC08BD0249183000F0B7FDF9E7EF
:10211800634D000810B586B0184C14E0636A059347
:10212800236A0493E3690393A369029363690193A0
:1021380023690093E368A2686168206800F0D4F816
:1021480023685C6530340E4B9C42E7D300F0D0FA2C
:102158000A4C03E02068FFF7CFFF3034084B9C425D
:1021680008D2A26AE36AB3F1FF3F08BFB2F1FF3FAA
:10217800F3D0EFE700F0D4FA06B010BDD85200084B
:10218800D852000808B50A4B01221A700320FFF73D
:1021980097FF00F08FFE0420FFF792FFFFF7BAFFCA
:1021A800FEF714FA034A938923F00103938108BDCB
:1021B800190400203001002008B50146014A0248F0
:1021C800FEF70EFF8D2100083001002010B50446EF
:1021D800FFF746FFB0230B4903FB04110A4A04EB3F
:1021E800840302EB8303D9601C7404EB4411074B8E
:1021F80003EB811303F5046304EB840402EB84020C
:10220800536010BD80000020E4030020400400203B
:1022180070B586B000F0B6FA104D114B5D61114BE8
:1022280005930123049300240394029401940094D9
:102238000D4B4FF480620D49284600F055F80646CC
:102248002B7C23F004032B74284602F051FD204612
:10225800FFF7BCFF304606B070BD00BF300100205C
:10226800E4030020105A00088D210008000E002009
:1022780008B50020FFF724FF184B83F30888184C93
:10228800636943F400736361F02384F82230002308
:10229800E37723766376A37684F82030636A43F481
:1022A800E0236362FEF7C2FDFEF7BAFE4FF0FF338C
:1022B800A362E362FEF7CCFFFEF744FF094800F093
:1022C80075F8FEF7A9FA0120FFF7FAFE0220FFF7DA
:1022D800F7FEFFF79DFFFFF76FFF00BF800C0020A0
:1022E80000ED00E0E00100202DE9F04F85B0044644
:1022F8000F4615461E46DDF838A0DDF83C90DDF89F
:102308004080DDF84CB000F158038365C365129B2B
:102318000422119902F08CFC2A463946204602F024
:1023280061FC0546CDF80880CDF80490CDF800A0F2
:102338003346024639462046FEF730FE00236365E1
:102348002666C4F864A0C4F86890C4F86C80EFF3FB
:102358001182102383F31288BFF36F8F124B196A0F
:1023680021671C6282F31188BFF36F8FBBF1000FE6
:1023780013D01F22594604F1740000F0FBFD00231E
:1023880084F89330084B9B685BB1D3F8A030C4F84D
:10239800A030284605B0BDE8F08F002384F87430DB
:1023A800F0E7C4F8A030F4E7E40300200123037445
:1023B80083810023C0F89430C0F89830C0F8A0306A
:1023C800014B9860704700BFE40300200A4A9368F5
:1023D800C3F8A8006FF00A01C3F8AC1007494B68AE
:1023E80043F080534B60002383F31188BFF36F8F52
:1023F8009368D3F8AC007047E403002000ED00E0D8
:10240800084681B908B5EFF305833BB9084B5A690B
:102418009B689A4202D0FFF7D9FF03E080F3118846
:10242800BFF36F8F08BD81F31188BFF36F8F7047BB
:10243800E4030020037C90F91020002A4EDB13F0FF
:102448001F0F4BD110B563F07F030374244A52F871
:10245800183F93423AD07BB190F90E1093F90E20B1
:10246800914202D0521A002A27DC19461C4AD26926
:10247800934201D01B6833BB194BDA6903F1180189
:10248800016042601060D861154B53F8184F9C42A8
:102498001ED0ECB1124B9B681A7C12F01F0F04D1AE
:1024A800DA897F2A01D9A269AAB1A34202D02046BB
:1024B80000F04AFB0A4B5C6110BD5A684260036039
:1024C80010605860E0E70029C5D1D5E70023C2E7CE
:1024D800034BDC68DEE7024A5361EDE7704700BF53
:1024E800E403002010B5037C90F91020002A19DBC2
:1024F800154B9A6853F8184F9C421ED0ECB1824293
:1025080008D0137C13F01F0F04D1D3897F2B01D976
:10251800A369ABB1A24202D0204600F015FB0A4BDA
:102528005C6110BD03F07F030374426803681360A5
:102538005A60002303604360DAE7034BDC68DEE798
:10254800014B5A61EDE700BFE40300202DE9F84391
:1025580005460C46424B9E68337C13F0600F2BD027
:1025680013F0200F2DD008271F4225D13B43337489
:1025780013F0800F27D1082F30D04FF00009384BC7
:1025880053F8188F98454FD0B8F1000F4CD0344B02
:102598009B68434502D0404600F0D6FA304BC3F85A
:1025A8001480102F08D0304601F0BDFC304600F0F2
:1025B80025FBB9F1000F3BD184F31188BFF36F8F6E
:1025C80047E01027D0E703F07F033374726833685D
:1025D80013605A60002333607360CCE7B3685BB163
:1025E8007268336813605A60002333607360327C0A
:1025F80022F002023274B36006F1180002F0FAFB0E
:1026080006F1580002F051FB154B9B689E4202D020
:102618004FF00009B3E7EFF3058313B94FF0000952
:10262800ADE74FF00109AAE70D4BD3F80C80AEE7F0
:102638000C48FFF7BBFEBFE7EFF31184102383F3C9
:102648001288BFF36F8F02F0CBFA84F31188BFF3BF
:102658006F8F2B7C13F0600FEED1BDE8F88300BFBD
:10266800E4030020E001002010B5204B9A68DB69E4
:102678009A4205D01368516812680A60516006E0F2
:102688000023F8E7194AD269934212D01B6883B134
:10269800164A906890F90E1093F90E209142F1D0E5
:1026A800521A002AEEDD5A684260036010605860D2
:1026B80008E00E4B9A68D96903F118001060516060
:1026C8000A60DA61094B53F8184F9C420AD04CB1A2
:1026D800064B9B689C4202D0204600F035FA034B1B
:1026E8005C6110BD014BDC68F2E700BFE403002029
:1026F8000023EFF31181102282F31288BFF36F8F4A
:1027080009E0064B9A68D37B013BD37381F31188A8
:10271800BFF36F8F0123002BF3D07047E403002031
:1027280038B5EFF31185102383F31288BFF36F8F49
:10273800124B9A68D17B0131D17353F8184F9C42E0
:1027480015D0A4B1137C13F01F0F04D1D3897F2BAC
:1027580001D9A36973B1944202D0204600F0F4F97C
:10276800064B5C6129460648FFF74AFE38BD034B15
:10277800DC68E7E7014B5A61F4E700BFE403002097
:102788000804002008B5024802F0FEFA08BD00BFA0
:10279800F803002038B5EFF31184102383F312886F
:1027A800BFF36F8F214B9A68DB699A4205D0136893
:1027B800516812680A60516006E00023F8E71B4A76
:1027C800D269934212D01B6883B1184A906890F975
:1027D8000E1093F90E209142F1D0521A002AEEDD24
:1027E8005A68426003601060586008E00F4B9A68AE
:1027F800D96903F11800106051600A60DA610B4B67
:1028080053F8185F9D420DD065B1084B9B689D42F7
:1028180002D0284600F098F9044B5D612046FFF786
:10282800D5FD38BD014BDD68EFE700BFE4030020AC
:10283800F8B551EA000328D005460C46EFF3118796
:10284800102383F31288BFF36F8F154EB068154BB2
:102858001860FFF747FEB0682A4623461249183029
:1028680000F00CFA0446B268137C43F004031374B6
:102878003846FFF7ABFDB3689A6ADB6AB3F1004FDD
:1028880008BF002A05D00020F8BDFFF783FF00200D
:10289800FAE702F0EEFA201A0028F5DC0020F3E748
:1028A800E403002008040020634D000838B50446FE
:1028B8000D46FFF7BDFF03462046B5F1FF3F08BFB1
:1028C800B4F1FF3F28D0DA1713F1090042F10003F1
:1028D8000021C21821D20A441149A1FB024525F062
:1028E800030404EB9504121B801A63F100034FF0F4
:1028F800CC3200FB02F201FB0322A0FB01010A44D7
:10290800430843EAC27352081846B3F1004F72F104
:10291800000201D36FF0004038BD0121DBE700BFA2
:10292800CDCCCCCC38B5EFF31185102383F31288C6
:10293800BFF36F8F037C13F0040F04D185F3118864
:10294800BFF36F8F38BD0446183002F053FA237C6A
:1029580023F0040323742046FFF76CFD2946024840
:10296800FFF74EFDEEE700BF08040020014B986812
:10297800704700BFE40300202DE9F843838903F082
:102988000107EFF31186102383F31288BFF36F8FCB
:10299800057C15F0080F1AD10446B14600F1580815
:1029A80002F051F910B345F020052574EFF30583C3
:1029B8009BB131462046FFF7C9FD67B1002383F379
:1029C8001188BFF36F8F0423184602DF03E086F3F4
:1029D8001188BFF36F8FBDE8F88341463F4B986875
:1029E80002F033F93046FFF7F1FCE6E745F008035B
:1029F800237413F0800F36D1A3685BB16268236833
:102A080013605A60002323606360227C22F0020274
:102A18002274A36004F1180002F0ECF9404602F0B9
:102A280044F92E4B9A6894422AD000262B4B53F82F
:102A3800185F9D422BD055B3AA4202D0284600F019
:102A480083F8264B5D61204601F06DFA204600F0C0
:102A5800D5F8FEB9214B9B689C421FD089F3118899
:102A6800BFF36F8FA9E705F07F0545F008052574CA
:102A78006268236813605A60002323606360BBE7C1
:102A8800EFF305830BB90026D0E70126CEE7134BF9
:102A9800DD68D1E71248FFF789FCDBE7EFF3058330
:102AA800002BDBD1A38913F0010F12D089F3118811
:102AB800BFF36F8F002383F31188BFF36F8F042355
:102AC800184602DFEFF31189102383F31288BFF34E
:102AD8006F8F4846FFF77AFC6FE700BFE4030020DA
:102AE800E00100200346027C12F01F0F10D10B4AB0
:102AF80090420FD00A4A106878B1DA897F2A0BD839
:102B080093F90E20074B1B689A4206DA002070479B
:102B18000020704700207047002070478000002088
:102B28004800002010040020044BC01AC010044BB9
:102B380003FB00F0034B01221A5470479002002057
:102B4800ABAAAAAA0C04002070B50C4B1E7CFFF798
:102B5800C9FF044606EB4603094D05EBC3052846A5
:102B680002F048F9074B00229A5504B970BD621E5D
:102B7800D3170549284600F081F8F7E7E403002059
:102B8800900200200C040020312B000838B5EFF328
:102B98001185102383F31288BFF36F8F144B9C6841
:102BA800144B1B68A34217D0124B00221A60104B1B
:102BB8001B7C114AD35C53B12046FFF793FF30B119
:102BC800237C13F01F0F0FD02046FFF7BDFF85F3BE
:102BD8001188BFF36F8F38BD2046FFF7B5FF85F327
:102BE8001188BFF36F8FF6E7FFF73EFDECE700BFF4
:102BF800E4030020080400200C040020EFF31181F6
:102C0800102383F31288BFF36F8F0A4B1B6A83422A
:102C180004D11A6F074B1A6207E0134613B11A6FF3
:102C28008242FAD10BB1026F1A6781F31188BFF3A0
:102C38006F8F7047E4030020034B1868984200D058
:102C480070470020FCE700BF4C00002030B1044A68
:102C58005268904201D0006870470020704700BF5A
:102C68004C00002008B5044B1B680BB1002008BDC0
:102C7800FFF7F2F8FBE700BF140400202DE9F04F3E
:102C880083B0B3F1FF3F08BFB2F1FF3F0ED0044657
:102C980091461F4681600023EFF3118A102282F3C8
:102CA8001288BFF36F8F1D46019335E0002501950B
:102CB8002846019903B0BDE8F08FFFF7D3FF80469F
:102CC800013547F10006451946EBE0762561666156
:102CD800344A13685268ED1846EB020301934FF02B
:102CE800010B38E0C91A66EB0202016142614368D0
:102CF800636020601C60446005E02B4B5A682360C9
:102D0800626014605C60FFF797FF844237D08AF3F3
:102D18001188BFF36F8F0123002BC9D14D4601974E
:102D2800002FCADA1F4B19685B68691843EB070361
:102D38006FF00102521A4FF0FF3161EB03031046A6
:102D48001946012A73F1000301DA012000212061EC
:102D580061614FF0000BFFF76FFF0028CDD00169CC
:102D68004669236962698B4272EB060EBADB5B1A0D
:102D780062EB060223616261FFF768FFEDE70B4B28
:102D88001B68002BC3D1BBF1000F06D0404602F0F0
:102D980016F80021FEF7CEFFB9E7FFF763FF80467C
:102DA800F4E700BFA80200204C0000201404002013
:102DB80070B50E462D4B1860FFF73EFF044628E01D
:102DC8002B4A136851685B1941EBE5711360516038
:102DD80000220023C4E90423204601F0D9FF012280
:102DE8004FF00043C4E9042386F31188BFF36F8FC3
:102DF800A36820469847EFF31186102383F31288BF
:102E0800BFF36F8F194A13685B1B1360FFF714FF3A
:102E180004463CB125696169144B1A68D317AA4264
:102E28008B41CDDA44B123696269104909685B1A9C
:102E380062EBE172236162610D4A0C4D28681368E8
:102E480051681B1841EBE0711360516000242C603D
:102E5800204601F0B4FF2146FEF76CFF86F3118887
:102E6800BFF36F8FFFF792FE70BD00BF1404002000
:102E7800A802002010B50022EFF31184102383F379
:102E88001288BFF36F8F134611460CE0FFF7EAFE76
:102E9800074A13685168C31841EBE07184F311883D
:102EA800BFF36F8F0122002AF0D0184610BD00BF73
:102EB800A802002008B5024800F0F5FE08BD00BFD2
:102EC800185A000870B586074FD08418844604E065
:102ED80003F8011B9D0704D09C4664456346F7D15F
:102EE80070BD013A0244A2EB0C02032A2FD9CCB2DE
:102EF80004EB04240F2A04EB044438D9A2F1100689
:102F0800350901359C464FF0000E0EF1010EAE4515
:102F1800CCE90044CCE902440CF1100CF5D326F0BE
:102F28000F06103312F00C0F334402F00F051AD0BD
:102F38002A1F032A1C6005D9A5F10802032A5C6030
:102F480088BF9C6005F0030225F003052B44541E3E
:102F5800002AC5D0C9B21970002CC1D0012C5970F3
:102F680018BF997070BD2A46F1E70346BDE71546BC
:102F7800DEE700BF38B540EA01039B07044622D1CB
:102F8800032A20D98C46DCF80050A5F1013323EA46
:102F9800050313F0803F61460CF1040C14D1043A88
:102FA800032A40F8045BEED861464B1E4AB113F879
:102FB800011F00F8011B013A0029F7D10AB1FFF7F8
:102FC80081FF204638BD20464B1EEFE771B103460E
:102FD80001EB000C01E0634506D01A460133117875
:102FE8000029F8D1101A7047181A70470846704718
:102FF80070B503F01F05082D84468E4665D0C3F1D1
:103008003703102DDCB2104644D04FEA9C034FEA38
:103018005C0243EA8E7342EACE729A184FEA5E0166
:1030280041EB9E01130943EA01739A1841EB111110
:10303800130A43EA01639A1841EB1121130C43EA7E
:1030480001439B1841EB1141CB185FFA8CF241F117
:1030580000014FEAD30C4CEA417C0CEB8C03A2EB49
:103068004303DBB2A3F10A02D2B2A518092B03F17C
:1030780030064FEAD10E05F1300520D91CF1010CBC
:103088004EF1000E092A9ABF263300F8013B00F8DA
:10309800015BBAE70CF00F03092B88BF1B194FEA35
:1030A8001C1242EA0E724FEA1E1188BFDBB2944628
:1030B80030330A4300F8013B8E46EBD170BD5CEA21
:1030C8000E0300F8016BA0D170BD10460CF0070389
:1030D8004FEADC0C4CEA4E7C30334FEADE0E00F847
:1030E800013B5CEA0E03F1D170BD00BF2DE9F04F42
:1030F8008378D0F804909F078BB040F132810B465B
:10310800804613F8010B0C46002800F0D8830025F0
:1031180000920DE01C464146C847002805F101050C
:10312800C0F21981234613F8010B002800F01B8117
:103138002528EFD16678252E04F10204EBD04FF054
:10314800000BDA465F461F2F5DD97F2F00F28A8079
:10315800A6F13003092B11D87E0600F1328114F84C
:10316800016B0AEB8A0A03EB4A0A47F02007A6F12B
:103178003003002E00F0E180092BF0D92A2E00F050
:103188000E812E2E00F0C381A6F14C032E2B00F2E7
:103198002581DFE813F061002301230123012301C6
:1031A80023012301230123012301230123012301F7
:1031B80023012301230123012301230123012301E7
:1031C80023012301230123012301230123015101A9
:1031D8002301610023015D01230123012301230150
:1031E800230123012301CD0023012301230123010E
:1031F8002301CD0047F0020714F8016B47F00407DC
:10320800002E00F09A80A6F12003102BA0D801A26E
:1032180052F823F0013200085931000859310008EA
:10322800773300085931000859310008593100082E
:10323800393300085931000859310008593100085C
:10324800FD3100085931000897330008593100084A
:10325800593100088733000814F8016B47F42077C8
:10326800002E6AD0A6F14C032E2B00F2B78001A2E3
:1032780052F823F061320008E5330008E53300080E
:10328800E5330008E5330008E5330008E5330008B6
:10329800E5330008E5330008E5330008E5330008A6
:1032A800E5330008E5330008E5330008E533000896
:1032B800E5330008E5330008E5330008E533000886
:1032C800E5330008E5330008E5330008E533000876
:1032D800E5330008E5330008E5330008E533000866
:1032E800E533000839340008E53300086132000886
:1032F800E533000851340008E5330008E5330008D9
:10330800E5330008E5330008E5330008E533000835
:10331800E53300082D350008E5330008E5330008DB
:10332800E5330008E5330008E53300082D350008CB
:1033380014F8016B002E7FF406AF002641462520C5
:10334800C847002807DB30464146C847002805F132
:103358000205BFF6E7AE98F8023043F0040388F898
:1033680002304FF0FF3528460BB0BDE8F08F14F857
:10337800016B47F01007002E7FF445AFDDE714F826
:10338800016B47F00107002E7FF43DAFD5E714F835
:10339800016B47F00807002E7FF435AFCDE70099A1
:1033A800780651F8042B40F1C38014F8016B002E05
:1033B80000F05D82A6F13003092B009193463FF699
:1033C800DDAE14F8016B0BEB8B0B03EB4B0B002EF4
:1033D800B3D0A6F13003092BF3D9CFE646F020038A
:1033E800BBF1000FA3F1650204DA27F04007BFB272
:1033F8004FF0000B022A33D9612B31D0A6F16302BA
:10340800122A00F2FC81DFE812F02E01A500FA0171
:10341800FA01FA01FA01A500FA01FA01FA01FA0122
:10342800FA01F0014E01FA01FA013801FA01EF0040
:10343800FE0548BF47F4007714F8016B47F480771E
:10344800002E7FF40FAF78E73B0648BF47F40077BC
:1034580014F8016B47F08007002E7FF403AF6CE788
:10346800009B03F1070B2BF0070B0BF108030093EC
:10347800BA4B4FF0070B3807514618D4D34516D22C
:103488004E461F46D14602E0834508D28246414651
:103498002020B04700280AF1FF30F5DA5BE74946FB
:1034A80001350D443B46B146A5EB0A0501461E46CB
:1034B80003EB0B0701944C4699462B468A46354642
:1034C8001E4605E015F8010BA0470028FFF643AF9C
:1034D800BD424146F6D14B463246A1462E46D31A46
:1034E800019C1E44AAEB0B0A3546B2444E4605E041
:1034F800B047002805F10105FFF62DAFAAEB05033B
:10350800002B41464FF02000F2DCB1460AE67A066D
:103518003FF529AF14F8016B47F04007002E7FF400
:1035280058AF0AE714F8016B002E7FF40EAE04E7DB
:10353800002AC0F2228114F8016B47F02007002E00
:1035480000F09581A6F13003092B009192467FF691
:1035580006AE13E63A06009B00F13B811A46F905D0
:1035680052F8043B019200F1FD811846DB1727F061
:1035780010018AB2002B0092C0F2868150EA030142
:1035880040F05E827B0640F1D581BBF1000F40F030
:10359800168227F01107BBB2009359465B46DDF847
:1035A80000C040F206470CF008001CEA070F02466C
:1035B80000F06D820131002800F0C781AAEB010AF2
:1035C8000293009B13F0020F14BF2B20202013F44A
:1035D800806F18BF2D204146C8470028029B05F17F
:1035E800010680F2B180B6E627F01007BFB20A23C1
:1035F80017F080025CD017F40071009A00F0CC80BC
:10360800073222F00702516852F8080B019207F0BE
:10361800400C50EA0102CDF800C06CD16246002A85
:1036280054D0BBF1000F40F0BB803B0740F1D18183
:103638005B4604AAD618234637464C469346994615
:1036480005E017F8010DA0470028FFF684AEBB453A
:103658004146F6D14B465A46A1462E441C46019B8C
:103668000093B61A40E7009A52F8043B8DF81030E0
:103678004FF0010B009204ABFDE6009E384A56F865
:10368800043B002B08BF134617F0400F18BF5946DC
:10369800184608BF4FF0FF310193FFF797FC019BD5
:1036A80000968346E7E647F01007102378269FE741
:1036B800009951F8040B019117F48071A7D017F401
:1036C80000711ABFC0B2114680B2A0E727F01607F2
:1036D800BAB20092002004AA00210292FFF788FCE7
:1036E800029A831A009911F0080100F09080AAEB61
:1036F800030A2E4628E004AA0292FFF779FC029AF0
:103708000099831A002973D027F0070189B25B4515
:103718000091C0F2D680F90640F13F81009A02F08C
:103728000802002E40F0A980591C002A00F02381CD
:10373800AAEB010A302041460093C8470028009BA5
:1037480005F10106FFF607AE9B4540F37E810BEBC2
:1037580006054F46ED1A994607E000BF485A00088B
:10376800405A0008AE4200F0848041463020B847F5
:10377800002806F10106F5DAEDE514F8016BC2F14F
:10378800000A47F02807002E71D0A6F13003092B54
:1037980000917FF6E4ACF1E452F8040B019236E7AD
:1037A80004AA002100200092FFF722FC009A27F0CB
:1037B8001701831A89B29B45009140F3EE80002ED1
:1037C80040F02781390740F18680AAEB0B0A2E4684
:1037D800BDE7B80540F1DA80073323F007031A463E
:1037E8005B6852F8080B0192C1E608230026FFE641
:1037F80027F0060189B20091F9068FD472E7782B79
:103808007FF49CADC6F1780343F01003F0E600980E
:10381800C00740F121819A45AAEB030025DD03EB9F
:10382800000B002900F020814FF0000A41463020AB
:103838000093C8470028FFF68EAD009B002E00F0CD
:10384800AA80304641460093C8470028009B05F1EE
:103858000206BFF679AF7EE50098C70740F10E81F2
:10386800D345AAEB0B00DADB04AA8246E2E6009114
:1038780063E54B4604AAB946DCE6991C002A00F029
:103888009180AAEB010AD1E7404263EB430142F47D
:103898008063009304AA0A230292FFF7A9FB029A05
:1038A800831A009A500640F1C480009A22F001025F
:1038B80092B29B4559460092B8BF19466FE6054635
:1038C80051E5002E40F0908038073FF57EAF27F095
:1038D8001707BAB20092594600268A4540F3D380AA
:1038E800CDE902342B464C460D4689461F4602E078
:1038F800524508DA154641462020A047002805F120
:103908000102F5DA27E538462F4605464946AAEB6F
:10391800020A0135009A6D1A3D44D706A146DDE931
:10392800023483D4114640F2064211427FF448AE75
:103938002E4609E704AA0A23002100200292FFF775
:1039480057FB029A811A0B4629E65FEACC77604654
:1039580032D58A45AAEB01006DDD03EB000B10465A
:1039680082462DE6BA054BBF58B218B243F3C013CE
:1039780043F3C033FBE5009AD00756D55145AAEB6F
:1039880001025FDA03EB020BB2464FE753F8040B70
:103998000193C317EBE56E1CD6E639076CD5AAEB85
:1039A800030A47E6009AD20752D55145AAEB01000F
:1039B80044DB82469B4639E78A4591DCFEE504AA4A
:1039C8000A23002000210292FFF712FB029A831AB1
:1039D8006BE7BAF1000F7FF72BAE27F01707BBB2E2
:1039E800009359465B467BE7FA0640D538070BF14A
:1039F80002013FF546AF8A453FF772AFAAEB010ACD
:103A0800302041460093C8470028009BBFF619AFF5
:103A1800A1E45A4601F0080081B200283FF41CAF27
:103A2800AAEB0B0A2E4693468EE65145FFF658AF91
:103A38007EE61946B3E59B468246C1E51021EEE6CF
:103A4800194627E792469B46F0E6354604AAF1E573
:103A58005145FFF645AF14E79A45D8BFAAEB030ACC
:103A68007FF766AF19463BE72E468A466CE6009913
:103A78005A4601F00800CFE719462EE7D34509DA80
:103A8800594693462CE7AAEB010A2E465CE65A46AD
:103A98008B46C1E7AAEB0B0A2E46934654E600BFB5
:103AA800704738B513468568046912F4801F07D03B
:103AB80012F4402F04D012F0010F01D082F44023F9
:103AC80023F4801213F0010F0AD023684FF0010C81
:103AD8000CFA01FC43EA0C0323602B68984738BDB5
:103AE80023684FF0010C0CFA01FC23EA0C03236055
:103AF800F3E708B503468C4600681979DA8842EA84
:103B08000C02FFF7CEFF08BD38B50C46056983687F
:103B18005B68984718B923682A685340236038BD02
:103B280010B582B00C4601A9FFF7EEFF034630B985
:103B38000123A340019A1340003B18BF01231846F4
:103B480002B010BD08B532B1012303FA01F1836850
:103B5800DB68984708BD012303FA01F183681B69F4
:103B68009847F7E710B503691C6801238B401C428E
:103B780002D0B2FA82F25209FFF7E4FF10BD08B58D
:103B88008368DB6913B10122984708BD6FF05700BD
:103B9800FBE708B520EAE073D9178A0042EA937276
:103BA8009800C01841EB020100184941FEF77EFE5B
:103BB80008BD10B5131D50F8234074B9C36801241B
:103BC80094402343C360043240F82210CB001A1DEE
:103BD80089B281520633C15210BDE2000432835AC1
:103BE8004FEAC10C0CF1040E20F80E300CF1060C53
:103BF80020F80C40DB00063389B2C1528152EBE752
:103C080008B500EBC1035A885208B2FA82F2C2F131
:103C18001F02FFF7CEFF08BD70B50346043AC81D62
:103C280020F007000A4422F00702121AD50818608B
:103C380085600023C360B5FA85F1C1F1200EC1F19A
:103C480024018900CE1DF10805E003F1040C0024CD
:103C580040F82C4001337345F7DB1FFA81FE4FEA29
:103C68004E04A4B244804FF0000CA0F800C044F009
:103C7800010444806B1A26F00704A51C9BB25E0061
:103C8800465320F804E022F00704951C20F805C0EC
:103C980002440353538843F001035380FFF7B0FFF6
:103CA80070BD002070470FB400B583B004A951F867
:103CB800040B0191FCF730FD03B05DF804EB04B090
:103CC8007047704738B505460C460321A0470028C1
:103CD80006DB01212846A047002800DB002038BD6C
:103CE80010F1860FFBD1F4E710B4846891FAA1F3C0
:103CF8009BB1B3FA83F35B004FF0030C0CFA03F3A8
:103D080024EA030391FAA1F149B1B1FA81F149001A
:103D18008A401343836010BC70472023EBE72021BF
:103D2800F5E710B4C46891FAA1F39BB1B3FA83F331
:103D38005B004FF0030C0CFA03F324EA030391FA37
:103D4800A1F149B1B1FA81F149008A401343C36036
:103D580010BC70472023EBE72021F5E708B5FFF7F3
:103D6800E0FF08BD10B4046A91FAA1F39BB1B3FA5D
:103D780083F39B004FF00F0C0CFA03F324EA0303C0
:103D880091FAA1F149B1B1FA81F189008A4013434E
:103D9800036210BC70472023EBE72021F5E710B43D
:103DA800446A090A91FAA1F39BB1B3FA83F39B0021
:103DB8004FF00F0C0CFA03F324EA030491FAA1F173
:103DC80049B1B1FA81F189008A401443446210BCB8
:103DD80070472023EBE72021F5E710B4046891FA37
:103DE800A1F39BB1B3FA83F35B004FF0030C0CFA19
:103DF80003F324EA030391FAA1F149B1B1FA81F17D
:103E080049008A401343036010BC70472023EBE746
:103E18002021F5E72DE9F8430F46154698464368F3
:103E28005E6801248C4002F03009C2F38013706888
:103E380020EA04008B4018437060C2F3C112214687
:103E48003046FFF751FFC5F3412221463046FFF7C0
:103E580085FFB9F1200F08D04FEA191221463046E4
:103E6800FFF7BBFF0020BDE8F883072F05D84246BF
:103E780021463046FFF776FFEEE7424621463046B8
:103E8800FFF78DFFE8E708B5FFF71CF808BD08B590
:103E9800FCF766F908BD08B501460068FCF720FD87
:103EA80008BD08B5FCF734FDFDF7C0F808BD0020D3
:103EB800704708B500231370CB1E092B1AD8DFE80A
:103EC80003F005090D111919191919141146FCF7F0
:103ED8000FFF12E00021FCF777FE0EE00021FCF74F
:103EE80087FD0AE0FCF7FAFD07E01146FCF750FEF3
:103EF800002002E0FCF756FE002008BD08B540B2DD
:103F0800FCF7DCFF08BD08B5013140B2FCF7E4FF5F
:103F180008BD08B500210120FCF7E2FC08BD08B582
:103F2800FDF718F808BD6FF08500704761B662B6F6
:103F380080F31188BFF36F8F704772B6002383F345
:103F48001188BFF36F8FBFF34F8F30BF62B6BFF3D7
:103F58006F8F704743685A1E134206D11F2B06D92C
:103F680003681A4205D000207047002070470020DF
:103F780070470120704700B585B00B6801934B6806
:103F88008A68202B12D9B3F1004F11D8013BB3FA3C
:103F980083F3C3F11F035B0003F03E031343039352
:103FA80001A9FDF703F905B05DF804FB0823F5E75F
:103FB8003E23F3E72DE9F84380460F469946164617
:103FC800002509E02146F0B2FFF7D5FF064610F1BB
:103FD800160F14D001360135BD4210DA05EB450441
:103FE80008EB84046268002AF5D0B9F1000FE9D023
:103FF8002046FFF7AFFF0028E4D16FF015063046E2
:10400800BDE8F883F0B585B0054603A8FCF71CFCAD
:104018000646002435E0B3F1007F00F0B280B3F12A
:10402800805F00F0C880B3F1807F29D157680958B4
:104038009368202B40F2A180B3F1004F00F29F80DB
:10404800013BB3FA83F3C3F11F035B0003F03E03A4
:1040580043F0887300970191029307E0082343F027
:10406800885343F4302300970191029369462878D6
:10407800FDF79CF80028C0F2BA802B7801332B702A
:104088000134B44280F0B6802001039901EB041298
:10409800D3686FF31303B3F5000F54D0BBD8B3F54F
:1040A800001F18D0B3F5800F31D0B3F5801FE7D1CA
:1040B800576809589368202BD0D9B3F1004F08D816
:1040C800013BB3FA83F3C3F11F035B0003F03E0324
:1040D800C5E73E23C3E7576809589368202B12D9D0
:1040E800B3F1004F11D8013BB3FA83F3C3F11F03B7
:1040F8005B0003F03E0343F0885343F4002300972A
:1041080001910293B2E70823F5E73E23F3E75768E6
:1041180009589368202B12D9B3F1004F11D8013BED
:10412800B3FA83F3C3F11F035B0003F03E0343F0CC
:10413800C06343F4003300970191029396E7082384
:10414800F5E73E23F3E7576809589368202B10D901
:10415800B3F1004F0FD8013BB3FA83F3C3F11F0348
:104168005B0003F03E0343F08273009701910293D2
:104178007CE70823F7E73E23F5E7082368E73E23B3
:1041880066E7576809589368202B10D9B3F1004F98
:104198000FD8013BB3FA83F3C3F11F035B0003F0AD
:1041A8003E0343F480230097019102935EE70823BE
:1041B800F7E73E23F5E7576809589368202B12D98B
:1041C800B3F1004F11D8013BB3FA83F3C3F11F03D6
:1041D8005B0003F03E0343F0885343F40033009739
:1041E8000191029342E70823F5E73E23F3E76FF0D6
:1041F800150000E0002005B0F0BD08B5FCF7EAFFA7
:1042080008BD08B5FCF7F0FF08BD08B5FDF760F874
:10421800002008BD08B5FDF781F808BD08B50622DD
:1042280001210020FDF7B6F8002211460620FFF70D
:104238006AFE072201210846FDF7ACF80022114664
:104248000720FFF760FE082201210220FDF7A2F8EF
:10425800002211460820FFF756FE092201210320FB
:10426800FDF798F8002211460920FFF74CFE0A22B4
:1042780001210420FDF78EF8002211460A20FFF7DD
:1042880042FE172205210846FDF784F80022114650
:104298001720FFF738FE282206210A20FDF77AF8B2
:1042A800002211462820FFF72EFE002008BD01F04D
:1042B8001F0101208840704708B50246084602F0F1
:1042C800030304339B000F21994041EA9201FDF753
:1042D80097F808BD08B500F0030304339B000F22CC
:1042E80002FA03F343EA9000FDF7A6F808BDB0FB15
:1042F800F1F002FB00F0B0FBF3F07047B0FBF1F017
:1043080070470B88C3F30B0303F57D62C2F30B02FE
:10431800782A15D882B003F1804303F50E334A6832
:10432800186802431A600B88C3F30B0303F1804338
:1043380003F50E331B680193019B002002B0704700
:104348006FF0850070470B88C3F30B0303F57D629C
:10435800C2F30B02782A0AD803F1804303F50E331F
:1043680049681A6822EA01021A60002070476FF053
:104378008500704770B54C68C4F304450888C0F3DD
:104388000B00FDF7F1F9002815DBA6B2FF2C13D0BE
:1043980006F1804202F50E32C4F341510131012386
:1043A8008B40013BAB40240EAC40116821EA03036B
:1043B8001C431460002070BD0020FCE708B5088885
:1043C800C0F30B0000F57D63C3F30B03782B0BD808
:1043D80000F1804000F50E3002684B68934301D02D
:1043E800012008BD0220FCE7FDF7BEF908B1012055
:1043F800F7E70220F5E770474FF4800070470B4657
:1044080039B11168196041688A4209D000231360E4
:1044180070471368036041688A42F7D14360F5E743
:104428004360F3E708B50A460368002101E019462E
:104438001B682BB19342FAD1FFF7E1FF012000E09E
:10444800002008BD70B504460D461646036833B112
:10445800FFF7E8FF70B91EB96FF0150006E032B13A
:1044680023682B602560636843B1002070BD6FF03E
:104478001500FBE7002EF3D10020F7E76560002068
:10448800F4E770B50E461546016821B10C683CB1D9
:1044980031B90C4604E00C4602E0234621461C468E
:1044A80071B18A682A4002D04B6830469847002C80
:1044B800F3D02368002BF1D0002CEFD12346EDE791
:1044C80070BD08B5024608690830FFF7DAFF08BD75
:1044D80010F4003F14D010F0020F04D010F0040FB5
:1044E80034D0502300E0102310F0100F02D043F412
:1044F800007312E010F0200F0FD043F480630CE03B
:1045080010F4803F08D010F0100F14D110F02003E1
:1045180003D04FF4806300E0302300F4C060B0F5AE
:10452800806F10D0B0F5C06F08D0B0F5007F07D10C
:1045380043F0800304E04FF40073EEE743F4C073E4
:104548000B600020704743F48073F9E76FF0850033
:10455800704743685B681B690B60002070474368BD
:104568005B68586942400A4042405A6100207047DF
:1045780043685B6899610020704743685B68090479
:1045880099610020704743685B685A6951405961D6
:104598000020704708B500690830FFF753FF08BDD1
:1045A80038B504460D460846FFF794FEA04200D0F1
:1045B80038BD29462046FFF77AFE0446FCF768FF17
:1045C8002046FCF7BFFF00212046FCF769FFEFE714
:1045D8002DE9F04383B005460E461446D0F8108006
:1045E80001A91046FFF774FF074668BB14F4403969
:1045F80014D0D8F8043023FA06F212F0010F04D1CF
:104608000122B2401343C8F8043014F4003F05D027
:1046180014F4002F1CD114F4802F1FD10023019A09
:1046280031462846FFF7F6FBB9F1000F0CD1D8F850
:10463800043023FA06F212F0010F05D00122B2402D
:1046480023EA0203C8F80430384603B0BDE8F08313
:104658000121B1402846FFF78BFFDFE70121B14078
:104668002846FFF78AFFD9E700B50368136001E021
:1046780008331360136890F804C0D0F800E00EEB1C
:10468800CC0C634505D293F805C08C45F0D10020C9
:1046980001E06FF001005DF804FB2DE9F84F80465A
:1046A8008A46002426461AE005F01F02102A25D063
:1046B800112A21D0C5F34420FCF79CF8814698B311
:1046C800C5F3431B05F01F073B4632465946FFF723
:1046D800A1FB002826DB112F12D00134E4B2544587
:1046E8001FD208EBC40358F8345015F0100FDBD173
:1046F8005E6846F02006DDE75E68DBE73026D9E72E
:10470800D9F804305A6816F4006F04D0012303FA6C
:104718000BF39361E1E7012303FA0BF31B049361A5
:10472800DBE70020BDE8F88F6FF01200FAE7436876
:104738001868C1F34B1301F01F01C358012000FA98
:1047480001F10B40003B18BF012313700020704794
:1047580010B443681C68C1F34B1001F01F012358C3
:1047680001228A4013432350002010BC704710B424
:1047780043681C68C1F34B1001F01F012358012244
:104788008A4023EA02032350002010BC704738B542
:1047980004460D46FFF7DCFF29462046FFF7E7FFF2
:1047A800002038BD08B58368DB680BB1984708BDA1
:1047B8006FF05700FBE7F8B50C46476803691D68BA
:1047C8000979012904D002290ED14FF4806301E050
:1047D8004FF4C0636279012A08D0022A08D0002A5F
:1047E8004BD14FF4805205E00023F3E7002201E0AB
:1047F8004FF44052A679042E42D0002943D14FF0FD
:10480800000CE179012941D00021A54241D03F683F
:10481800FE6806F4C06E734504D0FE6826F4C066D0
:104828003343FB6043681E68336903F440539A427C
:1048380004D0336923F440531A43326143681E6835
:10484800F36803F480539C4505D0F36823F4805340
:104858004CEA0303F36043681A68536903F440732E
:10486800994204D0536923F440730B435361216880
:104878002B68994228D10020F8BD4FF40052B9E7BF
:104888004FF4805CBDE74FF4805CBAE74FF44071A9
:10489800BBE73E68F56825F4B05543EA0C032B43A3
:1048A800F360336923F440531343336143681A6850
:1048B800536923F440730B4353612168FDF7CEF825
:1048C8000028D9DB0020D7E7FDF7C8F80028D3DB9C
:1048D80023682B600020CFE703691B681B680B6007
:1048E80043681B68DB6803F4C063B3F5806F04D0CA
:1048F800B3F5C06F11D1012300E002230B714368A7
:104908001B681B6903F44053B3F5805F07D0B3F508
:10491800405F06D0FBB9012304E00023EEE7002343
:1049280000E002234B7143681B68DA68DB6803F414
:10493800C06312F4805F10D1A3B903238B7143685D
:104948001B685B6903F44073B3F5407F0CD0002308
:10495800CB71002070470323E4E70BB90423EDE78C
:104968000323EBE70223E9E70123F1E700B583B06E
:1049780043681868036813F0080F05D003680193AB
:10498800019B43680193019B036813F0200F04D037
:104998009047002003B05DF804FB4FF0FF30F9E7C3
:1049A80010B543681868036813F0800FFBD0EFF365
:1049B8001184102383F31288BFF36F8F036813F0F9
:1049C800800F04D184F31188BFF36F8FEBE7904712
:1049D80084F31188BFF36F8F10BD43680B70704765
:1049E800C9B24160704784B043681B68186810F00A
:1049F800080000D001201A6812F0010F01D040F021
:104A080002001A6812F0020F01D040F004001A6880
:104A180012F0040F01D040F020001A6812F4807FD1
:104A28002AD040F008006FF480721A6010F0010F6D
:104A380005D01A680092009A5A680092009A10F0FD
:104A4800020F05D01A680192019A5A680192019AD8
:104A580010F0040F05D01A680292029A5A6802925E
:104A6800029A10F0200F05D01A680392039A5B6827
:104A78000393039B04B0704710F0080FD6D0D2E719
:104A880008B543685868196983681B680BB198476B
:104A980008BD6FF05700FBE700B583B001AAFFF728
:104AA800E3FD002805DB019B002219791868FFF750
:104AB800F4FD03B05DF804FBF8B5054646683468B4
:104AC80003691F68E36823F40053E360B06800F0EB
:104AD80061F808B3F168B068FFF764FE04F10C03ED
:104AE80053E8003F43F00C0304F10C0141E80032A5
:104AF800002AF3D139462846FFF75DFE00280EDB71
:104B0800337E1BB1636943F008036361E36843F4D0
:104B18000053E3600020F8BD6FF01200FBE76FF070
:104B28001500F8E738B504464568FFF7A9FF0028DF
:104B38000BDB0021686AFFF7AFFF002805DB204682
:104B4800FFF7BAFF002800DB002038BD08B5EFF3F7
:104B58001181102383F31288BFF36F8FFEF728F9B2
:104B680008BD10B50446436993B19847024630B171
:104B780000280BDBFF2A00DDFF22E3681A70E168DA
:104B88004B7843F001034B70504210BD4242F1E7AD
:104B98000022F4E760B1C3685A7812F0010F03D01D
:104BA8001B781BB100207047002070470120704718
:104BB80000207047EFF31183102383F31288BFF3AB
:104BC8006F8FFEE708B5FFF7F5FF08B5EFF3118320
:104BD800102383F31288BFF36F8FFFF7AEF9F5E761
:104BE80000BF7047F8B50546D31D23F007037F3390
:104BF80023F03F0301F14007A3F140063F2B07D8FC
:104C0800002282F31188BFF36F8F0422104602DF5F
:104C1800CC1821462846FBF793FE073020F0070002
:104C2800C5F89470C5F89860C5F89C00201AF8BDBE
:104C380010B400248460838102748173C473846116
:104C4800C46110BC70470020704738B504460D4653
:104C5800FDF748FC237C43F00203237425B3A560C9
:104C68002B689D4207D1002305E019466A689342E4
:104C780015D01B687BB993B194F90E1093F90E20E7
:104C88009142F2D0521A002AEFDD5A68626023601E
:104C980014605C6008E00029EDD10B46EBE76B6817
:104CA800256063601C606C6038BD70B5064604689A
:104CB80084421AD0DCB16268236813605A60002508
:104CC80025606560237C23F002032374A56004F14A
:104CD800180000F08FF8C4F8AC502046FDF7AAFB86
:104CE8003468A642E6D10024E4E70024E2E770BD78
:104CF80038B504460023EFF31185102282F3128899
:104D0800BFF36F8F04E085F31188BFF36F8F012322
:104D180043B92046FFF797FF0028F4D12046FDF756
:104D280089FBF0E738BD08B5037C13F0280F13D1D1
:104D380083685BB14268036813605A6000230360AC
:104D48004360027C22F0020202748360037C23F039
:104D580004030374FDF76EFB08BD38B5A0F1180510
:104D68000023EFF31184102282F31288BFF36F8FB0
:104D780007E02846FFF7D7FF84F31188BFF36F8F4A
:104D88000123002BF5D038BD031D436083607047B5
:104D980010B50446FDF75AFF48B102460369416958
:104DA80020691B18606941EB000113615161626859
:104DB800236813605A6000232360636010BD10B538
:104DC8000446FDF739FF78B1036942691B1B62EBA2
:104DD800E472B3F1004F72F1000108DA002A01DB36
:104DE800184610BD0023FBE76FF00040F9E76FF0AD
:104DF8000040F6E72DE9F04104460025EFF311875E
:104E0800102383F31288BFF36F8F6FF0150014E03F
:104E1800FDF728FFFFF7D3FF0021FCF78BFF404683
:104E280006E022696369B3F1004F08BF012A18D070
:104E380087F31188BFF36F8F0125A846BDB9236892
:104E4800002BEED0FDF7F8FE06462046FFF7A0FF40
:104E580000224FF00043C4E90423A642D8D02846D4
:104E6800E6E700224FF00043C4E90423E0E7BDE889
:0C4E7800F08108B5FDF7FEFF08BD00004A
:084E84004CB4FF7F01000000A7
:104E8C00000000001C4F000885070008000000000F
:104E9C0000000000384F000800000000E04F000840
:104EAC0000000000185000080000000034500008FA
:104EBC0000000000FC4F000800000000C44F000878
:104ECC0000000000A84F0008000000008C4F0008F4
:104EDC0000000000704F000800000000544F000854
:104EEC00254200080000000000000000505000089F
:104EFC00000000006C500008E918000800000000D9
:104F0C00A11C0008000000000113000800000000B4
:104F1C00C4590008000000000C5300086600002073
:104F2C00000000009517000800000000D45900088C
:104F3C00A05B0008FC520008680000200000000084
:104F4C000000000000000000E0540008505A000867
:104F5C00D852000854000020BC020020ED070008C5
:104F6C0000000000F0540008645A0008D8520008F1
:104F7C0056000020CC020020ED07000800000000C5
:104F8C0000550008785A0008D85200085800002034
:104F9C00DC020020ED07000800000000105500089E
:104FAC008C5A0008D85200085A000020EC0200204D
:104FBC00ED0700080000000020550008A05A00086A
:104FCC00D85200085C000020FC020020ED0700080D
:104FDC000000000030550008B45A0008D8520008F0
:104FEC005E0000200C030020ED070008000000000C
:104FFC0040550008C85A0008D8520008600000202C
:10500C001C030020ED0700080000000050550008AC
:10501C00DC5A0008D8520008620000202C03002043
:10502C00ED07000800000000A45900080000000073
:10503C000000000064000020000000001D42000879
:10504C0000000000E8590008A45B00082853000881
:10505C006A0000202C0000202D4B000800000000EE
:10506C00F8590008F45B0008285300086C00002075
:0C507C00380000202D4B00080000000050
:10508800000000001B3F0008000000001B3F000854
:10509800000000001B3F0008000000001B3F000844
:1050A800000000001B3F0008000000001B3F000834
:1050B8009C5B0008C1130008985B0008C113000836
:1050C800945B0008C1130008905B0008C113000836
:1050D8008C5B0008C1130008000000001B3F00089B
:1050E800000000001B3F0008000000001B3F0008F4
:1050F800000000001B3F0008000000001B3F0008E4
:10510800000000001B3F0008000000001B3F0008D3
:10511800000000001B3F0008000000001B3F0008C3
:10512800000000001B3F0008000000001B3F0008B3
:10513800000000001B3F0008885B0008C11300083E
:10514800000000001B3F0008000000001B3F000893
:10515800000000001B3F0008000000001B3F000883
:10516800000000001B3F0008000000001B3F000873
:10517800000000001B3F0008000000001B3F000863
:10518800000000001B3F0008000000001B3F000853
:10519800000000001B3F0008000000001B3F000843
:1051A800000000001B3F0008000000001B3F000833
:1051B800000000001B3F0008000000001B3F000823
:1051C800845B0008C1130008000000001B3F0008B2
:1051D800000000001B3F0008000000001B3F000803
:1051E800000000001B3F0008000000001B3F0008F3
:1051F800000000001B3F0008000000001B3F0008E3
:10520800000000001B3F0008000000001B3F0008D2
:10521800000000001B3F0008000000001B3F0008C2
:10522800000000001B3F0008000000001B3F0008B2
:10523800000000001B3F0008000000001B3F0008A2
:10524800000000001B3F0008000000001B3F000892
:10525800000000001B3F0008000000001B3F000882
:10526800000000001B3F0008000000001B3F000872
:10527800000000001B3F0008000000001B3F000862
:10528800000000001B3F0008000000001B3F000852
:10529800000000001B3F0008000000001B3F000842
:1052A800000000001B3F0008000000001B3F000832
:1052B800000000001B3F0008000000001B3F000822
:1052C800000000001B3F0008000000001B3F000812
:1052D800D94500085B45000867450008794500087E
:1052E800834500088F450008051900089D450008FA
:0452F80000000000B2
:1052FC0037470008594700087747000897470008C8
:10530C000B4300084F43000800000000E1150008A3
:0C531C00C5430008000000007D430008AD
:10532800391C0008491C0008EF490008091B00083F
:04533800E148000840
:10533C00040000000F000000010000000800000045
:10534C002000000060000000700000001000000051
:10535C000C0000000E000000500000007400000063
:10536C00A8000000FFFFFFFFFFFFFFFFFFFFFFFF95
:04537C00FFFFFFFF31
:105380004400000000400000427574746F6E20708D
:105390007265737365642061742025750A000000CE
:1053A0004572726F723A20627574746F6E20646514
:1053B00076696365202573206973206E6F7420728F
:1053C000656164790A0000004572726F722025647D
:1053D0003A206661696C656420746F20636F6E6645
:1053E00069677572652025732070696E2025640ACF
:1053F000000000004572726F722025643A206661D9
:10540000696C656420746F20636F6E66696775727E
:105410006520696E74657272757074206F6E2025D8
:10542000732070696E2025640A00000053657420A3
:10543000757020627574746F6E20617420257320FE
:1054400070696E2025640A004572726F72202564AF
:105450003A204C45442064657669636520257320B5
:105460006973206E6F742072656164793B2069678F
:105470006E6F72696E672069740A00004572726F00
:10548000722025643A206661696C656420746F201F
:10549000636F6E666967757265204C45442064656C
:1054A000766963652025732070696E2025640A0083
:1054B000536574207570204C454420617420257319
:1054C0002070696E2025640A000000005072657328
:1054D000732074686520627574746F6E0A00000032
:1054E0006770696F40343030323163303000000013
:1054F0006770696F4034303032313830300000002E
:105500006770696F40343030323134303000000021
:105510006770696F40343030323130303000000015
:105520006770696F403430303230633030000000D3
:105530006770696F403430303230383030000000EE
:105540006770696F403430303230343030000000E2
:105550006770696F403430303230303030000000D6
:1055600072302F61313A2020307825303878202071
:1055700072312F61323A202030782530387820205F
:1055800072322F61333A20203078253038780A0083
:1055900072332F61343A20203078253038782072E9
:1055A00031322F69703A20203078253038782072D7
:1055B00031342F6C723A20203078253038780A0048
:1055C00020787073723A20203078253038780A00BD
:1055D0004661756C74696E6720696E737472756369
:1055E00074696F6E20616464726573732028723110
:1055F000352F7063293A203078253038780A00003A
:10560000556E68616E646C6564204952516E3A2033
:1056100025640A00535053454C20696E207468720B
:10562000656164206D6F646520646F6573206E6FC3
:105630007420696E646963617465205053500A0078
:105640002A2A2A2A2A20425553204641554C5420C2
:105650002A2A2A2A2A0A00002020537461636B69CF
:105660006E67206572726F720A0000002020556E0E
:10567000737461636B696E67206572726F720A0082
:1056800020205072656369736520646174612062D3
:105690007573206572726F720A0000002020424606
:1056A000415220416464726573733A2030782578E2
:1056B0000A0000002020496D7072656369736520DF
:1056C0006461746120627573206572726F720A0082
:1056D0002020496E737472756374696F6E206275F1
:1056E00073206572726F720A000000002020466C01
:1056F0006F6174696E672D706F696E74206C617A6A
:105700007920737461746520707265736572766157
:1057100074696F6E206572726F720A002A2A2A2AD3
:105720002A205553414745204641554C54202A2AAA
:105730002A2A2A0A00000000202044697669736939
:105740006F6E206279207A65726F0A002020556E94
:10575000616C69676E6564206D656D6F727920613B
:1057600063636573730A000020204E6F20636F70BF
:10577000726F636573736F7220696E737472756391
:1057800074696F6E730A00002020496C6C65676154
:105790006C206C6F6164206F66204558435F5245F2
:1057A0005455524E20696E746F2050430A00000019
:1057B0002020496C6C6567616C20757365206F668D
:1057C0002074686520455053520A0000202041741F
:1057D00074656D707420746F206578656375746589
:1057E00020756E646566696E656420696E73747297
:1057F000756374696F6E0A002A2A2A2A2A20446572
:10580000627567206D6F6E69746F7220657863656D
:105810007074696F6E202A2A2A2A2A0A0000000062
:105820005265736572766564204578636570746946
:105830006F6E20280000000053707572696F7573D9
:1058400020696E74657272757074202849525120F7
:10585000000000002A2A2A2A2A20257320256429EC
:10586000202A2A2A2A2A0A002A2A2A2A2A204D50AD
:1058700055204641554C54202A2A2A2A2A0A00003B
:105880002020537461636B696E67206572726F725A
:105890002028636F6E746578742061726561206D75
:1058A00069676874206265206E6F742076616C6928
:1058B00064290A0020204461746120416363657398
:1058C000732056696F6C6174696F6E0A0000000086
:1058D00020204D4D46415220416464726573733AF5
:1058E00020307825780A00002020496E7374727584
:1058F0006374696F6E204163636573732056696FCB
:105900006C6174696F6E0A002A2A2A2A2A2048418B
:105910005244204641554C54202A2A2A2A2A0A0059
:105920002020427573206661756C74206F6E20763E
:105930006563746F72207461626C65207265616466
:105940000A00000020204465627567206576656E58
:10595000740A000020204661756C742065736361D1
:105960006C6174696F6E20287365652062656C6F69
:1059700077290A00415243485F4558434550542017
:105980007769746820726561736F6E2025780A0AE2
:1059900000000000464C4153485F30005352414DD7
:1059A0005F300000696E746572727570742D636F7C
:1059B0006E74726F6C6C65724034303031336330AA
:1059C000300000007263634034303032333830309E
:1059D0000000000072657365742D636F6E74726FE2
:1059E0006C6C65720000000073657269616C403414
:1059F000303030343430300073657269616C40345B
:105A0000303031313030300069646C6500000000A6
:105A10006D61696E000000002A2A2A20426F6F74AF
:105A2000696E67205A6570687972204F53206275DD
:105A3000696C642076342E342E32202A2A2A0A00F9
:105A4000286E756C6C2900002A666C6F61742A00E0
:105A5000FFFF0000001C02400700000030000000B3
:105A600080000000FFFF0000001802400600000058
:105A70003000000040000000FFFF00000014024062
:105A8000050000003000000020000000FFFF0000C3
:105A90000010024004000000300000001000000070
:105AA000FFFF0000000C0240030000003000000077
:105AB00008000000FFFF0000000802400200000094
:105AC0003000000004000000FFFF0000000402405E
