:020000040800F2
:10000000801B00201D270008917A0008092700089E
:100010000927000809270008092700080000000038
:100020000000000000000000000000005D27000844
:10003000092700080000000045290008C9480008F9
:10004000DD290008DD290008DD290008DD29000878
:10005000DD290008DD290008DD290008DD29000868
:10006000DD290008DD290008DD290008DD29000858
:10007000DD290008DD290008DD290008DD29000848
:10008000DD290008DD290008DD290008DD29000838
:10009000DD290008DD290008DD290008DD29000828
:1000A000DD290008DD290008DD290008DD29000818
:1000B000DD290008DD290008DD290008DD29000808
:1000C000DD290008DD290008DD290008DD290008F8
:1000D000DD290008DD290008DD290008DD290008E8
:1000E000DD290008DD290008DD290008DD290008D8
:1000F000DD290008DD290008DD290008DD290008C8
:10010000DD290008DD290008DD290008DD290008B7
:10011000DD290008DD290008DD290008DD290008A7
:10012000DD290008DD290008DD290008DD29000897
:10013000DD290008DD290008DD290008DD29000887
:10014000DD290008DD290008DD290008DD29000877
:10015000DD290008DD290008DD290008DD29000867
:08016000DD290008DD2900087B
:1001800030B490F800F020F007016FF0000C10F090
:10019000070491F820F040F048804FF000046FF021
:1001A0000700D1E9002391F840F000F1080082FA3D
:1001B0004CF2A4FA8CF283FA4CF3A2FA8CF34BBB08
:1001C000D1E9022382FA4CF200F10800A4FA8CF281
:1001D00083FA4CF3A2FA8CF3E3B9D1E9042382FA4F
:1001E0004CF200F10800A4FA8CF283FA4CF3A2FA64
:1001F0008CF37BB9D1E9062301F1200182FA4CF29C
:1002000000F10800A4FA8CF283FA4CF3A2FA8CF302
:10021000002BC6D0002A04BF04301A4612BAB2FA24
:1002200082F200EBD20030BC7047D1E9002304F029
:100230000305C4F100004FEAC50514F0040F91F85E
:1002400040F00CFA05F562EA05021CBF63EA0503FB
:1002500062464FF00004AAE7844641EA000313F027
:1002600003036DD1403A41D351F8043B40F8043BBD
:1002700051F8043B40F8043B51F8043B40F8043B80
:1002800051F8043B40F8043B51F8043B40F8043B70
:1002900051F8043B40F8043B51F8043B40F8043B60
:1002A00051F8043B40F8043B51F8043B40F8043B50
:1002B00051F8043B40F8043B51F8043B40F8043B40
:1002C00051F8043B40F8043B51F8043B40F8043B30
:1002D00051F8043B40F8043B51F8043B40F8043B20
:1002E00051F8043B40F8043B403ABDD2303211D3C0
:1002F00051F8043B40F8043B51F8043B40F8043B00
:1003000051F8043B40F8043B51F8043B40F8043BEF
:10031000103AEDD20C3205D351F8043B40F8043BBF
:10032000043AF9D2043208D0D2071CBF11F8013BBD
:1003300000F8013B01D30B8803806046704700BF83
:10034000082A13D38B078DD010F003038AD0C3F192
:100350000403D21ADB071CBF11F8013B00F8013B74
:1003600080D331F8023B20F8023B7BE7043AD9D333
:10037000013A11F8013B00F8013BF9D20B78037008
:100380004B7843708B7883706046704753B94AB995
:10039000002908BF00281CBF4FF0FF314FF0FF308D
:1003A00000F00CB8ADF1080C6DE904CE00F01BF8BC
:1003B000DDF804E0DDE9022304B07047704700BFB8
:1003C000430803F05533C01A00F03333800800F0BF
:1003D0003330184400EB10104FF0013300F00F30B1
:1003E0005843000E70472DE9F0478C468E46089E14
:1003F000154604461946002B40F0D080724547D977
:10040000B2FA82F74FB1C7F120030EFA07FC20FAC7
:1004100003F3BD4043EA0C0CBC404FEA154EA8B2B2
:10042000BCFBFEF8230C0EFB18CC08FB00F943EADA
:100430000C43994528D9EB1808F1FF3204D29945AD
:1004400002D9A8F102022B44A3EB0903A4B2B3FB27
:10045000FEFC0EFB1C330CFB00F044EA0344A042FC
:1004600014D92C190CF1FF3304D2A04202D9ACF1FB
:1004700002032C44241A43EA02401EB1FC4000232C
:1004800034607360BDE8F0874246DDE76346F1E71C
:10049000002A79D0B2FA82F3002B3FD01946C1F17D
:1004A000200302FA01F52EFA03F20EFA01FE20FAF9
:1004B00003F343EA0E034FEA154E00FA01F4B2FBD0
:1004C000FEFCAFB20EFB1C201A0C0CFB07F842EA34
:1004D000004290455AD9AA180CF1FF3004D2904539
:1004E00002D9ACF102002A44A2EB08029BB2B2FB93
:1004F000FEFC0EFB1C220CFB07F743EA02439F4263
:1005000046D9EB180CF1FF3204D29F4202D9ACF16C
:1005100002022B44DB1B42EA004202E0AEEB020384
:1005200001224FEA154EAFB2B3FBFEFC200C0EFBCE
:100530001C330CFB07F840EA034398452AD9EB1813
:100540000CF1FF3004D2984502D9ACF102002B44E3
:10055000A3EB0803A4B2B3FBFEFC0EFB1C330CFBA5
:1005600007F744EA0344A74216D92C190CF1FF33CC
:1005700004D2A74202D9ACF102032C44E41B43EAA3
:1005800000400F46114678E71F2188E76046ABE739
:100590006246BFE76046DBE76346EFE7734506D98F
:1005A00016B9002108466DE7C6E9000EF9E7B3FA6F
:1005B00083F787B9734501D3824207D8841A6EEB5B
:1005C000030301209C461EB900215BE73846FAE789
:1005D000C6E9004CF8E7C7F1200CBB4022FA0CF545
:1005E0001D4320FA0CF12EFA0CF30EFA07FE41EA35
:1005F0000E014FEA154900FA07F4B3FBF9F81FFAA8
:1006000085FE09FB18300B0C08FB0EFA43EA004389
:100610009A4502FA07F240D9EB1808F1FF3004D2EC
:100620009A4502D9A8F102002B44A3EB0A0389B230
:10063000B3FBF9F809FB183308FB0EFE41EA03414E
:100640008E452CD9691808F1FF3304D28E4502D9A2
:10065000A8F10203294443EA0040A0FB0298A1EB61
:100660000E014145CE46434602D306D14C4504D245
:10067000B9EB020E68EB05030138002EA4D0B4EBF1
:100680000E0261EB030101FA0CFC22FA07F34CEABB
:100690000303F940C6E9003196E74046C5E7434603
:1006A000D9E700002DE9F04F91B00592039313466E
:1006B00002F004020092C3F3C20210F0030301939C
:1006C00040F01B82074689460132041D002848D0AD
:1006D000072940F21582039B5D1EDDF804B0CDF8BA
:1006E00010B0CDF818B000264FF0FF3A4FF00408D4
:1006F000CDF808B0C3460FB1039B2360531E079388
:10070000002A40F35D81059B13F0020226D00120F0
:10071000E11B8B081AB1B1F5007F80F0F7810299D7
:100720000F2900F2F681002F00F05B81DBB201F1AE
:1007300040026A4402F8103C02F820AC002800F0A5
:100740004C8163F07F0301F140026A4402F8103CDF
:10075000049B01330493029B01330293043400226F
:100760003EE001F007031C44C3F10809B3E700268B
:1007700035E0002633E0002631E04FF00808C3469C
:100780002DE025292BD10AF1010A01264FF004089A
:10079000C34624E04729ECD82A2912D32A39C9B202
:1007A000012000FA01F14FF6DA70014217D111F081
:1007B000625F40F0C38011F0010F40F08D80002691
:1007C0000DE0252903D10AF1FF3A002607E0D2D82F
:1007D000202904D0232902D0002600E000261D464F
:1007E0006B1C6978002900F01581002EC9D07A2988
:1007F000BDD84C29CED34C392E29EFD801A050F8C2
:1008000021F000BFDF070008DD070008DD07000852
:10081000DD070008DD070008DD070008DD07000828
:10082000DD070008DD070008DD070008DD07000818
:10083000DD070008D1080008DD070008DD07000813
:10084000DD070008DD070008DD070008DD070008F8
:10085000DD070008DD0700083D090008DD07000886
:10086000D1080008D10800083D0900083D0900082A
:100870003D090008DF070008D10800087B070008D1
:10088000DD070008DF070008DD0700089B090008F6
:10089000D10800089B090008DD070008DD070008F3
:1008A000A5090008C9080008D1080008DD070008EC
:1008B000DD070008D1080008DD070008C1080008AE
:1008C0004FF00408C3468AE74FF00408C34686E7A2
:1008D00029786C2924D000264444013CB4FBF8F468
:1008E00008FB04F427B1E11B5944494500F20B8190
:1008F000002A5DD1BBF1040F00F08480BBF1080F2A
:1009000040F00A811A99073121F0070101F108002E
:100910001A90D1E900010FB1C4E9000108345EE783
:1009200013F8021C6C2904D000264FF00408C346BB
:10093000D2E700264FF00808C346CDE729784C29B6
:100940001BD01A99073121F0070101F108001A9014
:10095000D1E90001073424F0070447B1E61B08364B
:100960004E4514D82D784C2D14D0C4E9000108341C
:1009700000264FF00808C34631E71A99073121F0E5
:10098000070101F108001A90D1E90001E2E76FF0D8
:100990001B00AFE0C4E90001E9E700264FF00408BE
:1009A000C34699E7324600264FF00408C34693E752
:1009B0001A9A111D1A9112680392079A1D469AE617
:1009C0005B4B039A9A4203D35A4B9A42FFF49BAE75
:1009D000059B03F0020200209AE6069B0133069372
:1009E000B9E610B109F10109B5E6009B13B109F1AF
:1009F0000209B0E60398FFF7C3FB09EB000303F11C
:100A00000209A8E61A99081D1A90096807B1216021
:100A10000434E4E6DDF808B0E31BB3F5806F7ED262
:100A200087B100223A609B083B70009B73B1069B24
:100A3000FB70049BBB700BBB019DDDF810A0DDF8C3
:100A40000C803AE04B44A3F1080053E0069B7B7016
:100A5000EFE701339B45EFD903F140026A4412F8F6
:100A6000101C12F9102C002AF3DA01F07F01E21BAE
:100A700001324A4556D804F8011BEAE7019BE9E731
:100A8000009B3BB305F140036B4413F8203C04F892
:100A9000013B019EE31B334401334B4545D805F12F
:100AA00040036B4413F8103C04F8013B32464146C6
:100AB0002046FFF7D1FB34440135AB4519D9BAF1D3
:100AC000000FDDD005F140036B4413F9103C002BFF
:100AD000D6DAF1E705F140036B4413F8103C57F800
:100AE0002380002247F823204046FFF749FB461C9D
:100AF000D0E7E01B11B0BDE8F08F6FF00D00F9E713
:100B00006FF01B00F6E76FF01B00F3E76FF01500C6
:100B1000F0E76FF01500EDE76FF01500EAE76FF012
:100B20001500E7E76FF01B00E4E76FF01B00E1E75B
:100B3000489000083CAB00082DE9F04F97B000AF9B
:100B40008346BA617B61D7F88030C3F3C0033B6250
:100B5000F96011B906F037F9F8609BF80260B14608
:100B600036B1D7F8803013F0010F29D1002300E00F
:100B700000239BF803207A6222B1D7F8802012F07C
:100B8000020F00D1F3B19BF80050AA00BA60DBF865
:100B900004203A610BEB8505BA69FAB1002B40F0ED
:100BA0000581B9F1000F00F00F81D7F8803013F004
:100BB000040F00F00C81FE61002607F13400F9E01B
:100BC0000123D6E7BB691BB17A69F9685846984793
:100BD000FC6820465C37BD46BDE8F08FFC68E3B991
:100BE0004D4400237B6123E00444013501364E452A
:100BF0001AD22A7800235BF822201946B86906F039
:100C0000F7F8BAF1000FEFD0D7F888309845EBD25B
:100C10002AF8180008F10108E6E70026C7F81C804A
:100C2000B046D7F884A0E2E7C7F81480D7F81C8054
:100C3000D7F8803003F00503FB604FF0000AA146AF
:100C4000C7F81CB09CE000253B6A7BB9002D79D029
:100C5000D7F8803013F0010F79D1FB68002B6FD1EA
:100C60000223A9EB030988E00125EDE7594638691D
:100C700006F004F90028E9D06C46002387F82C30F0
:100C8000022387F82D308AB0694611F1100237D05F
:100C900012251AB1042D01DDB14B4B61002387F8F9
:100CA0002830022387F829306ABB112D45DD122335
:100CB00062B1042087F82C00002087F82D0087F807
:100CC0002E00012087F82F00F86A086128F001083B
:100CD00028F0020828F0040828F03808022161F3FF
:100CE0008818C3F30A0363F35328C8F313080023D7
:100CF00041469C4800F0B4FDA546A9F102093CE03C
:100D00006FF00045C5E72B46082D01DD3869886185
:100D10000C2B01DDC1F81CB001F12003002009E01B
:100D200000F1300C07F1280EF4441CF830CC03F825
:100D300001CB01300128F3D9B7E76FF01B03B7E708
:100D400001238EE7D7F8803013F0020F15D000236F
:100D500022461946B86906F04BF8D7F8843053B1EB
:100D60007B69D7F88820934205D2D7F8842022F8EF
:100D7000130001337B61013881440AF1010A3546D1
:100D80007B6A9A4510D22E4616F802BB6B78FA6938
:100D900052F82340744B9C42FFF455AF734B9C4276
:100DA000FFF462AF00254FE74C4612E707F144001D
:100DB0000023FB614A462946FFF74EFA4D444FF0A7
:100DC0000008C7F804901BE00026FE61F6E7002645
:100DD000FE61F3E700253B6A33BB002D3BD0D7F81B
:100DE000803013F0010F26D0731C06F1300207F19A
:100DF0002801561806F8149CDEB208F101082546B1
:100E00007B6A98454AD22C4614F802AB95F80190BB
:100E10005BF82930544A9342DCD3544A934201D3BD
:100E20000025D8E70125D6E75146386906F026F8AF
:100E30000028D2D0E1E7D7F8803013F0040FDCD0DF
:100E4000FA69531C303207F128010A4402F8249C45
:100E5000DBB2FB61D1E7D7F8803013F0020F09D085
:100E6000731C06F1300207F12801561806F8149C8D
:100E7000DEB2C2E7F869431C00F1300107F1280235
:100E80008A1802F824AC02460232D2B2FA6107F1A3
:100E9000580252FA83F303F8249CAEE7D7F8049083
:100EA0009BF8003087F854309BF80130334487F8C2
:100EB0005530D7F8803013F0020F0ED1FB69C3F321
:100EC000470387F85730D7F8803013F0010F06D169
:100ED00013F0040F3ED1002302E00023F1E70023CA
:100EE00087F85630DBF800003863786DCBF80000E7
:100EF000D7F814804246B9685846D7F818A0D047AA
:100F0000041EFFF666AE386BCBF80000C7F81480FD
:100F10004246F96907F13400D04700285FDB04EB53
:100F20000008B96849447B6A01EB4301D7F8149083
:100F30004A46FB68591A2846D047041EFFF649AEB8
:100F400008EB04054FF00008C7F824B0B346544638
:100F5000CA4622E0FB69C3E74FF000090AE000BF80
:100F6000C0960008EC950008489000083CAB0008CB
:100F70004FF000095246012107F12C00A04700283C
:100F80002FDB05444B4632465146204605F030FFE4
:100F9000002828DB054408F10108D84518D208F1DB
:100FA000300307F12802134413F8143C87F82C305F
:100FB0007A6A52F82360D7F88430002BCCD0D7F867
:100FC00088309845D4D2D7F8843033F81890D1E7D8
:100FD0007A6900210846BB6998472C46F9E5044622
:100FE000F7E50446F5E50446F3E500BF014B18605C
:100FF000704700BFA800002080B505460E46174682
:10100000984604F081FC034601F0F8FC0446DFF842
:10101000189049F80030424639463046A84754F8FF
:10102000090001F075FC00BF08000000034A536886
:1010300023F0020353600020704700BF002004E04B
:1010400008B50B4641680C31012B14D00AD833B9CE
:101050000F4B9B685B68C3B10D48984707E06FF082
:10106000850004E0023BDBB2012B01D8002008BD63
:101070006FF08500FBE7064B9B681B6813B10448C3
:101080009847F4E76FF05700F1E76FF05700EEE78D
:101090000091000808B5024906F032FA08BD00BF09
:1010A0004110000810B5192808D8064B53F8204005
:1010B000204607F0B3FD18B1204610BD0024FBE721
:1010C0000024F9E79CA50008EFF31182102383F3B5
:1010D0001288BFF36F8F0B4B1B684BB90A490B6823
:1010E00043F480730B60084B1B6813F4807FFAD0C5
:1010F00004490B6801330B6082F31188BFF36F8FD3
:10110000704700BF4C0900200070004010B5EFF39D
:101110001184102383F31288BFF36F8F144B1B6865
:10112000A3B9144B0122BFF35B8F53E8001F0029C2
:1011300003D143E800200028F7D1BFF35B8F0BD128
:101140000D4A02210D4806F084FB05E0012B08D072
:10115000074A1368013B136084F31188BFF36F8F54
:1011600010BD074A136823F480731360F0E700BFD3
:101170004C09002048090020049800084496000803
:1011800000700040084B1A6842F480721A601A68B6
:1011900042F400721A601A6842F480621A60034BCB
:1011A000034A1A60704700BF003C0240180100204B
:1011B0000024F40038B505460B4C00E010340B4B0E
:1011C0009C420FD263685B79002BF7D029462046FA
:1011D00006F093FA0028F1D023681B6829462046C0
:1011E0009847EBE738BD00BF5C9600086C96000896
:1011F00070B506460D46084C00E01034074B9C4283
:1012000008D223689B69002BF7D02A463146204636
:101210009847F2E770BD00BF5C9600086C96000826
:1012200008B507F0F9FE0022431819D213440D4AFD
:10123000A2FB03CE2EF0030C0CEB9E0CA3EB0C03D5
:10124000C01A61F100014FF0CC3300FB03F302FB45
:101250000133A0FB02021344400840EAC37008BDFA
:101260000122E3E7CDCCCCCC2DE9F0410746054681
:101270000AE007EA0807144B03EB06135B68042235
:101280001968204606F079FAD5B195FAA5F6B6FAAE
:1012900086F60D4C04EB06140123B3406FEA0308F5
:1012A00025EA0305237B002BEED03301064AD358F1
:1012B0001B69002BDDD0204698470028E4D1D8E7F1
:1012C0003846BDE8F08100BF5C9600082DE9F0418A
:1012D00080460F461F4BBFF35B8F53E8005F6A1CCD
:1012E00043E800210029F8D1BFF35B8F6DBB1A4C96
:1012F000002607E0636804221968204606F03DFADC
:1013000001361034154B9C4211D2237B002BF7D0B1
:10131000204606F0E6F923681B69002BEAD0204638
:1013200098470028E6D00123B3401D43E8E7B8F111
:10133000000F0BD055B12846FFF796FF0546002F4A
:10134000F8D00A2006F0DBF9F4E700252846BDE8CE
:10135000F08100BF640900205C9600086C960008CC
:1013600008B5064B186018B1054B1B68092B00DC4B
:1013700008BD044803F0DCFEFAE700BF580900206E
:10138000600900208801002008B5024803F0D0FE63
:1013900008BD00BF8801002030B589B000220F4988
:1013A0000F4807F03DFE0F4D00220023CDE9062334
:1013B000002404940E2303930294019400940A4B96
:1013C0004FF440720949284607F095FC0849284621
:1013D00003F01AFF204609B030BD00BF8913000892
:1013E000500600209801002089170008800A00207C
:1013F00044980008014B53F82000704718A60008D5
:1014000048B108B5054A1060054B1960084600F060
:1014100021FD002008BD6FF015007047AC000020D2
:101420005409002008B5054B1B781BB1034B012262
:101430001A7008BD024803F07BFEF7E7740A00202B
:101440008801002008B5104BBFF35B8F53E8001FE5
:10145000013143E80012002AF8D1BFF35B8F30B9A5
:101460000A4804F0C1FD0A4803F062FE08BD094BBA
:10147000BFF35B8F53E8001F013943E80012002AD5
:10148000F8D1BFF35B8FEBE75C090020500600202A
:101490008801002060090020064B0022BFF35B8F0B
:1014A00053E8000F43E800210029F9D1BFF35B8F17
:1014B000704700BF5C09002038B5FFF7EDFF054617
:1014C000094C00E01034094B9C420BD263685B79F5
:1014D000002BF7D023685B68002BF3D02946204609
:1014E0009847EFE738BD00BF5C9600086C9600088F
:1014F000034B18680028D4BF00200120704700BFAC
:101500005C09002010B5044C0449204605F046FE55
:10151000034B1C6010BD00BF4C01002004A6000856
:101520005009002008B500230C4A13700C4A1360C0
:101530000C4A13604FF47A710B48FFF761FFFFF715
:10154000E1FF0A4A06E0094BD31A1B110133516827
:101550000B711032064B9A42F5D308BD750A002074
:101560005C09002060090020211200085C96000838
:101570006C96000808B50146014806F0D0F808BD91
:101580004C01002008B5024805F0EBFE08BD00BF85
:101590004C01002008B50146024B186806F0C5F85A
:1015A00008BD00BF5009002008B5024806F0C1F888
:1015B00008BD00BF4C01002010B582B000220023FE
:1015C000CDE90023304B187808B902B010BD684649
:1015D00006F0C7F8044680B1FFF7ECFD2046FFF7A0
:1015E000D9FF2A4BBFF35B8F53E8001F013943E853
:1015F0000012002AF8D1BFF35B8FFFF779FF70B9B3
:10160000234A1368516813F57A7341F1000113609E
:101610005160A4B3FFF7C8FF98B30120D5E707F0E6
:10162000FBFC0022431828D213441A4AA2FB03CE23
:101630002EF0030C0CEB9E0CA3EB0C03C01A61F113
:1016400000014FF0CC3300FB03F302FB0133A0FB9E
:1016500002021344400840EAC3705B080C490A6860
:101660004968801A63EB010340F2E932904273F15A
:101670000003C5D3FFF720FFC2E70122D4E7002013
:10168000A3E70020A1E700BF740A00206009002042
:1016900048060020CDCCCCCC0F4B1B7803B1704753
:1016A00010B500210120FFF711FE0C4C00E01034B2
:1016B0000B4B9C4208D263685B79002BF7D0236800
:1016C0009B6820469847F2E7FFF776FF0028FBD19A
:1016D000014B01221A7010BD750A00205C960008AB
:1016E0006C96000810B582B01A4BBFF35B8F53E8BD
:1016F000002F511C43E800100028F8D1BFF35B8F86
:10170000154B1B7863B9154B1B68B3B1BAB1092AE5
:1017100013D1134804F068FC124803F009FD0CE0F3
:10172000EFF31184102383F31288BFF36F8FFFF759
:1017300043FF84F31188BFF36F8F02B010BD002206
:101740000023CDE9002342F210720023044804F084
:1017500011FCF2E760090020750A002058090020FA
:10176000500600208801002010B50446044B1B6879
:101770009847A0602146034805F0F7FF10BD00BF61
:10178000AC0000204C0100202DE9F041002108466A
:10179000FFF79CFD804650B14FF4FA76002701F028
:1017A0002DF9154B1858FFF7DBFD002515E04FF01C
:1017B000FF364FF0FF37F2E74046FFF755FD804612
:1017C00070B94FF0FF364FF0FF3709E02C46324634
:1017D0003B460A4803F0E2FC2546B8F1000FEBD186
:1017E000FFF7EAFE04460028F6D1002DEED00021D6
:1017F0000846FFF7FDFCEAE708000000880100202A
:101800000248034BC01AC008704700BF5C9600082E
:10181000E495000810B50C46FFF7F2FFA04203D98B
:10182000024B53F8340010BD0020FCE7E49500089B
:1018300000B589B0059206930023079362B1074A69
:101840000C9B02930B9B01930A9B009305ABFFF744
:1018500073F909B05DF804FB0022F1E79177000805
:101860002DE9F04F8BB004AF05461E468846C1F304
:101870004A24002C00F0898091460022FA603A61E7
:101880007A6104230293FB1801930A23009307F162
:101890000C0321464846FFF74FF9B0F5006F58D3C7
:1018A000D9F804106D4600233B7302237B738AB082
:1018B00004AC14F1100217D012201AB1042801DD73
:1018C0003B4B636100233B7002237B70CAB103462C
:1018D000082800DDA1610C2B02DD40F2FF73E361FB
:1018E00004F1200300210AE06FF00040E5E701F178
:1018F00018063E4416F8186C03F8016B01310129F3
:10190000F5D9112822DD122342B1042139730021B7
:101910007973B9730121F973F8682061002121F00E
:10192000010121F0020121F0040121F0380102201F
:1019300060F38811C3F30A0363F353210023C1F357
:1019400013011C4805F0A7FFAD462DE06FF01B0307
:10195000DAE760F35328C0F30A0A0AEB185017308D
:1019600020F007008008FFF705FE8346B0B104238E
:101970000293FB1801930A230093534600F11002CF
:1019800021464846FFF754FF08E004EB1154173492
:1019900024F00704A008FFF7EDFD834633464246D6
:1019A0002946584605F00DFF1C37BD46BDE8F08FAF
:1019B0005C980008FC9500082DE9F04F85B0814641
:1019C0000E4690461F46DDF838B0DDF840A0BAF16B
:1019D000000F41D0119B0393009353460F9A10219F
:1019E0000020FEF75FFE0546B0F5006F2CD20BEB32
:1019F0000500173020F007008008002424F00104BF
:101A000024F0020424F0040469F3C50468F3881484
:101A100065F353246BF31F54FFF7ACFD804650B1C0
:101A20001030BAF1000F06D0119B009353460F9A65
:101A30002946FEF737FE3B4622463146404605F032
:101A4000C0FE05B0BDE8F08F40F2FF73034A0221EB
:101A5000034805F008FFF4E70025C8E79C98000854
:101A6000FC950008406820B1034BC01A40F3CF003A
:101A700070474FF0FF307047E49500080EB400B592
:101A800082B0014603AB53F8042B0193034801F0E5
:101A9000BDF802B05DF804EB03B07047CD780008E4
:101AA00010B584B011F0440F05D01A4B1B6833B940
:101AB000002004B010BD1849FFF7E0FFF9E717490F
:101AC0000968B2FBF1F2B2FBF3FC03FB1C224FF4FA
:101AD0007A7E0EFB02F2B2FBF3F403FB14210EFB41
:101AE00001F1B1FBF3F10E4AA2FB0C32D20A4FF422
:101AF000616303FB12CC0B4BA3FB0CE35B0902916C
:101B00000194C3EB0311ACEB810100910649FFF78F
:101B1000B5FFCEE76C090020D498000868090020C2
:101B2000C5B3A29189888888E098000861B108B59A
:101B30002AB1064A52F8232012B9054A00E0044AA5
:101B40000449FFF79BFF08BD704700BF50A600087F
:101B5000FC980008049900082DE9F0410546174655
:101B6000079EDDF8208081B900242EB1324611494C
:101B70002846FFF783FF0444B8F1000F14D06FB17B
:101B80000B9B042B13D00C4909E00C4B0B9A53F818
:101B900022200B49FFF772FF0446E6E7064942465A
:101BA0002846FFF76BFF04442046BDE8F081054955
:101BB000F5E700BF1C9900080C99000864A600080E
:101BC00014990008089900082DE9F04F89B00546DE
:101BD0000C46069207939DF8587001F0020B01F035
:101BE000010AC1F3C00801F4807905F0C4FD38B3DF
:101BF000024618492846FFF741FF0646BBF1000F91
:101C000020D13A465146284605F08BFEB9F1000F27
:101C100001D00023139305979DF854300493149B2F
:101C20000393139B0293129B019300230093069A44
:101C300041462846FFF790FF304409B0BDE8F08FD9
:101C40000026DBE7079A21462846FFF729FF0644CE
:101C5000D7E700BF2099000811F0100F0BD108B58D
:101C600011F0200F03D00449FFF708FF08BD034916
:101C7000FFF704FFFAE77047249900082899000845
:101C80002DE9F04105460F46164698460699FFF79E
:101C9000E3FF002404E025492846FFF7EFFE013466
:101CA0004445F8DB002409E020492846FFF7E6FE1A
:101CB0000BE01F492846FFF7E1FE01340F2C0CDC36
:101CC000002C02DD14F0070FEED0B442F1D23A5DE1
:101CD00018492846FFF7D2FEEFE717492846FFF7D5
:101CE000CDFE002409E011492846FFF7C7FE0BE0AE
:101CF00012492846FFF7C2FE01340F2C13DC002CDA
:101D000002DD14F0070FEED0B44207D23A5D0C4B5F
:101D10009B5C13F0970FEBD12E22E9E7034928468D
:101D2000FFF7ACFEE8E7BDE8F08100BF2C990008A2
:101D300038990008309900083C990008409900083B
:101D40003CAA00082DE9F04186B004469DF83850C1
:101D50000F9F119E95B9012B21D01A484FF0000812
:101D600027B13B462246184905F058F8DEB91DBB9D
:101D7000204605F094FD06B0BDE8F08104959DF87D
:101D8000340003900C980290019300920B460022BD
:101D900012992046FFF718FF80460C48E0E70B48F1
:101DA0004FF00008DCE7129B00934346324610993F
:101DB000204605F0CEFDDAE72A461299204605F0C6
:101DC000BCFDD5E7057900080D2C0008CD7800088A
:101DD0002DE9F04383B00646056842F20F738B424B
:101DE00028BF0B46184A0521684604F0D1F904467D
:101DF0007368D3F804900B27DFF8508005E04A465B
:101E000039464046A8473F1A8044002FF7D17368EF
:101E1000D3F804806F4605E0424621463846A8477D
:101E2000241A0744002CF7D173685F681B24084EFE
:101E300005E03A4621463046A847241A0644002CBD
:101E4000F7D103B0BDE8F083349A000844A6000837
:101E500028A60008074B01221A6004E04008054A42
:101E600013685B001360044B9842F7D8034B18606B
:101E7000704700BF6809002040420F006C09002035
:101E800070B506460D46002405E0315D04488368C0
:101E90005B6898470134AC42F7D3284670BD00BF59
:101EA00050920008014B036000207047ACA6000868
:101EB00008B50348034A121A002105F0DBFD08BDEE
:101EC00098010020780A002008B50648064A121A30
:101ED000064905F0D3FD0648064A121A064905F0E0
:101EE000CDFD08BD00000020980100203CAB00089B
:101EF00000000020000000203CAB00082DE9F0416C
:101F000082B000AF0446D0F800E0D0F804C0856885
:101F10006E468AB06B4613F1100200F088801421DF
:101F20008AB10846042903DDDFF81C81C3F8148058
:101F3000082801DDC3F818E00C2801DDC3F81CC037
:101F4000102800DD1D62132974DD14253AB1052126
:101F5000397100217971B971F971786818610021BE
:101F600021F0010121F0020121F0040121F03801EA
:101F7000012363F38811C5F30A0565F35321C1F307
:101F8000130100233148FFF76BFCB546D4F80CC0B1
:101F900026696569E8468AB06B4613F110024CD099
:101FA000142182B10846042903DDDFF8A4E0C3F858
:101FB00014E0082801DDC3F818C00C2800DDDE613C
:101FC000102800DD1D6213293ADD14253AB10521E0
:101FD000397100217971B971F9717868186100213E
:101FE00021F0010121F0020121F0040121F038016A
:101FF000012666F38811C5F30A0565F35321C1F381
:102000001301124D00232846FFF72AFCC546E36959
:10201000104A3146284605F026FCA3690E4A31468F
:10202000284605F020FC0837BD46BDE8F0816FF07A
:10203000004175E76FF01B0588E76FF00041B0E7DE
:102040006FF01B05C2E700BF849900081C960008CA
:10205000B4990008E4990008F499000838B50446DA
:102060000D4611B10846FFF749FF012C04D029465F
:10207000204602F01DFE38BDEFF30583103B034AF6
:102080000121034805F0EFFBF1E700BF249A0008A7
:102090001C96000830BFFFF7FDBF00BF38B50446EF
:1020A000054D2A460549FEF7D7F8054A0021601973
:1020B00003F0D8FF38BD00BF00000000B096000854
:1020C0000400000070B50646064D074B1D444C1B2E
:1020D0002046FFF7E3FF083CC6F8A44005F10800DE
:1020E00070BD00BF00000000040000008169104BBB
:1020F0005A6942F480725A61BFF34F8FBFF36F8FFA
:1021000031F8021C5A6922F480725A61BFF34F8F72
:10211000BFF36F8F01F47F43B3F55F4F01D0002011
:102120007047C9B2022901D00020704701207047D2
:1021300000ED00E04FF0000C83F800C002F07F4C8F
:10214000BCF17F4F14D102F00C0CBCF1080F04D08D
:1021500012F0080F09D00846704708B5054A01215A
:10216000054805F076FB002008BD01221A70704773
:1021700000207047389A00081C96000808B52B4AC2
:1021800001212B4805F065FB2A4B9B6A13F0007F69
:1021900021D11D20274B9B6A13F0807F22D1254B34
:1021A0009B6A13F4002F24D1224B9B6A13F4802FD7
:1021B00026D1204B9B6A13F4003F28D11D4B9B6A0C
:1021C00013F4803F2AD11B4A936A6FEA03436FEAF4
:1021D0001343936208BD184A0121154805F039FBE5
:1021E0001E20D7E7154A0121114805F032FB1F20B8
:1021F000D5E7134A01210E4805F02BFB2120D3E738
:10220000104A01210A4805F024FB2220D1E70E4A9A
:102210000121074805F01DFB2320CFE70B4A0121D0
:10222000034805F016FB2420CDE700BF649A0008A0
:102230001C96000800ED00E07C9A0008909A0008C7
:10224000AC9A0008CC9A0008F49A0008109B000889
:1022500008B500230B70034A0121034805F0F9FA81
:1022600008BD00BF3C9B00081C96000890B583B0D9
:1022700000AF0F2923DC2F4C103900233B710223C0
:102280007B718AB0EC461CF110021AD0122022B1E8
:10229000042802DD284BCCF8143000233B700223C5
:1022A0007B70E2B10346082801DDCCF818400C2B06
:1022B00001DDCCF81C100CF1200300210DE01F4CB7
:1022C000DAE76FF00040E2E701F1080404EB070EE3
:1022D0001EF808EC03F801EB01310129F4D91128AB
:1022E00024DD12234AB10421397100217971B971B9
:1022F0000121F9717868CCF81000002121F001016A
:1023000021F0020121F0040121F03801012060F3E5
:102310008811C3F30A0363F35321C1F313010023AC
:102320000748FFF79DFA0C37BD4690BD6FF01B03C1
:10233000D8E700BF609B0008949B0008789B0008CA
:102340001C960008F8B505460F461446374A012189
:10235000374805F07EFA374B9B6A13F4805F25D12E
:102360001626344B9B6A13F4006F26D1314B9B6ABF
:1023700013F4007F28D12F4B9B6A13F4806F3FD159
:102380002C4B9B6A13F4807F41D12A4B9B6A13F438
:10239000005F43D1274A936A43F47F43936201214C
:1023A000284605F07BFB20703046F8BD224A01210B
:1023B0001F4805F04EFA1726D3E7204A01211C4892
:1023C00005F047FA1826D1E71D4A0121184805F003
:1023D00040FA184A936B926A12F4004F01D1192601
:1023E000C9E7184A0121124805F03DFA37B1114AF0
:1023F000936A23F4004393621926BCE71926BAE7CF
:10240000114A01210A4805F024FA1A26B8E70F4AB2
:102410000121074805F01DFA1B26BBE70C4A0121E4
:10242000034805F016FA1C26B4E700BFA89B000875
:102430001C96000800ED00E0C09B0008D49B00083B
:10244000E89B0008049C00081C9C0008389C0008BD
:10245000509C00082DE9F04104460F461546464AB7
:102460000121464805F0F5F9454B9B6A13F0100F22
:102470003CD11026424B9B6A13F0080F3DD1404BD4
:102480009B6A13F0020F3FD16FF015083C4B9B6A1B
:1024900013F0010F58D13A4B9B6A13F0200F5AD119
:1024A000374B9B6A13F0100F04D1354B9B6A13F026
:1024B000020F04D0324B5B6813F4006F52D1304BE3
:1024C0009B6A13F0200F04D02D4A536A23F4005363
:1024D00053622B4A936A43F0FF0393620121204623
:1024E00005F0DCFA28703046BDE8F081254A01216C
:1024F000224805F0AEF91126BCE7234A01211F4806
:1025000005F0A7F91226BAE7204A01211B4805F079
:10251000A0F91B4BD3F834809B6A13F0800F03D1D2
:102520006FF015081326B1E74346194A01211348F5
:1025300005F099F937B1124A936A23F08003936248
:102540001326A3E71326A1E7124A01210B4805F041
:1025500080F914269FE7104A0121084805F079F90F
:1025600015269DE72146404605F0D0FA0028A6D062
:1025700080F309880226A2E7809C00081C960008C8
:1025800000ED00E0989C0008D49B0008CC9C00085B
:10259000E49C0008FC9C0008509C000870B50646AE
:1025A0000D462B4A01212B4805F053F900232B70CF
:1025B000294BDC6A14F002040AD1274BDB6A002B9A
:1025C0000DDB254BDC6A14F080440ED1204670BD33
:1025D000224A01211F4805F03CF90024F6E7204A71
:1025E00001211C4805F035F9F0E71E4A0121194880
:1025F00005F02FF93046FFF779FD98B9164B9B6A25
:1026000013F0FF0F16D1144B9C6A14F47F4418D1B9
:10261000114B9B6AB3F5803FD8D33046FFF7AEFD30
:102620000446D3E73368104A01210A4805F01BF934
:102630003468CBE72A4601213046FFF70BFF0446FA
:10264000C4E72A4601213046FFF77CFE0446BDE779
:102650001C9D00081C96000800ED00E0349D000859
:10266000589D0008689D0008889D000830B58BB013
:102670001E4B5D68C5F30805002383F31188BFF383
:102680006F8F0DF12603FFF755FD04460DF127026C
:10269000294605F005FA9DF827300BB10BB030BD87
:1026A00005460DF1040C20686168A268E368ACE897
:1026B0000F0020696169A269E369ACE80F009DF829
:1026C00026304BB1089BC3F308024AB96FEA532383
:1026D0006FEA4323089303E0089B6FF30803089312
:1026E00001A92846FFF7BAFCD8E700BF00ED00E0DB
:1026F000044B5A6942F010025A615A6922F00802EA
:102700005A61704700ED00E0EFF30880EFF30981B4
:1027100001B57246FFF7AAFF01BD00BF0C4880F368
:10272000088800200B490870102080F311880A489F
:102730004FF40461401880F30988EFF314800221FC
:10274000084380F31488BFF36F8F00F049F800004E
:10275000801B0020770A0020C00D00201EF0040F0F
:102760000CBFEFF30880EFF30980816911F8021CB8
:102770000229FFD001B5724605F084F901BD00BF02
:10278000002807DB00F01F02400901239340024AA2
:1027900042F82030704700BF00E100E0002808DB6D
:1027A0000901C9B200F1604000F5614080F80013F2
:1027B000704700F00F000901C9B2014B195470476E
:1027C00014ED00E0044B23F07F03044A9360BFF351
:1027D0004F8FBFF36F8F70470000000800ED00E0DF
:1027E00008B5FFF7EFFF0B4AD2F8883023F47003E7
:1027F000C2F88830EFF3148323F0040383F31488C2
:10280000BFF36F8FFFF754FBFFF75EFB00F0CCF8D0
:1028100002F050FC00ED00E0104B9B68BBB110F1E2
:10282000160F0BD0D3F89420A2F1400C844510D899
:10283000824210D98A4207D800207047D3F89420EA
:102840008A4201D800207047D3F8940070470020D6
:102850007047002070470020704700BF400A0020EA
:1028600010B4A2F120040E4942F8081C21F0010125
:1028700042F8081C42F8203C019B42F81C3C029B99
:1028800042F8183C039B42F8143C4FF0807342F826
:10289000043C04650023C0F8A83010BC704700BF9A
:1028A000F90F000808B50E4615460C4A9060D0F89E
:1028B000A4200B4B1A6000F0B5F82C4686F309886B
:1028C0000020044B98472046002100220023024CA0
:1028D000204700001B7B0008F90F0008400A002079
:1028E00098090020014B10221A61704700ED00E0AA
:1028F000054B5A699B689A4204D0044A536843F0D6
:1029000080535360704700BF400A002000ED00E094
:1029100008B50A4B9B68834202D002F0FBFF08BD5A
:10292000EFF30583002BF8D0054B5A6842F0805234
:102930005A605A6A22F400425A62EEE7400A0020C6
:1029400000ED00E015498A684FF030001044EFF3C5
:10295000098C80E8F01F102080F31288BFF36F8F7E
:102960000F4F4FF000664A698A603E60D2F8A400BB
:102970000C4C2060D2F8A8000023C2F8A83080F3E5
:10298000118804B5104600F04DF8BDE8044002F18E
:10299000300090E8F01F8CF309887047400A00204F
:1029A00004ED00E098090020002206E003F00F0388
:1029B0000949194410230B760132492A0ADC53B223
:1029C000002BF3DB03F1604303F56143102183F82F
:1029D0000013F1E7704700BFFCEC00E008B5EFF32F
:1029E0000583103B044A02EBC301496852F83300E7
:1029F0008847FFF77DFF08BDDC92000801480068AA
:102A0000704700009809002008B5034B034A0121D4
:102A1000034805F0C1F908BD008001200000002036
:102A2000ACA6000808B5D0F89430403B04480360D9
:102A300040234360034B8360012105F0B1F908BDD9
:102A40009C09002000000B15084AC2F898000B688A
:102A500023F01F03034343F01003C2F89C308B683C
:102A600043F00103C2F8A030704700BF00ED00E062
:102A700010B504460A4BD3F89030C3F30723013B4B
:102A8000984203D8FFF7E0FF204610BD0346054AF1
:102A90000121054804F0E7FE6FF01500F5E700BFDF
:102AA00000ED00E0A89D0008149600082DE9F84309
:102AB00080460F4699461646002509E02146F0B2A9
:102AC00005F050F8064610F1160F1AD00136013500
:102AD000BD4216DA05EB450408EB84046268002A5F
:102AE000F5D0B9F1000FE9D0204605F02AF800280A
:102AF000E4D12B46044A0121044804F0B4FE6FF0EF
:102B000015063046BDE8F883D09D000814960008ED
:102B100010B5034C01232278FFF7C8FF207010BDC9
:102B2000760A002008B500230B4A1278FFF7BEFF93
:102B300010F1160F0FD0024606E0084BC3F898209C
:102B40000021C3F8A0100132044BD3F89030C3F336
:102B500007239342F1DC08BD760A002000ED00E077
:102B6000044B0522C3F89420BFF34F8FBFF36F8F40
:102B7000704700BF00ED00E0BFF35F8F024B002203
:102B8000C3F89420704700BF00ED00E038B51C4B3F
:102B90001D681C4BD3F89030C3F307239D422BD8FC
:102BA000FFF7EAFF002409E0154B5B6804EB4401E2
:102BB00003EB81012046FFF747FF0134A542F3D81C
:102BC0001148057004F0EDFF10F1160F13D00E4BF5
:102BD0001A780C4BD3F89030C3F307239A4207DAE4
:102BE000084BC3F898200021C3F8A0100132F0E789
:102BF000FFF7B6FF002038BD4FF0FF30FBE700BF06
:102C0000B8A6000800ED00E0760A002070B586B096
:102C100006460D461146684600240094019402942D
:102C200003940494059402228DF80220044A019230
:102C3000049605951A4603F05DFB06B070BD00BF13
:102C4000A97D000808B5024B1B689847002008BD05
:102C5000A8090020034B1860034A937843F002034D
:102C600093707047A8090020B800002008B50649F5
:102C700021F00701C1F1005202F5C032034804F00F
:102C80004FF8002008BD00BFC71B0020AC09002082
:102C900000B583B0094B93E8030002AB03E90300DE
:102CA000074B9B681B682BB169460548984703B0E2
:102CB0005DF804FB6FF05700F9E700BFB09600081D
:102CC0000091000808B500F01F02012393401F285F
:102CD00006D8074A526993430CBF0120002008BD63
:102CE0000346044A0121044804F0BDFD0020F6E734
:102CF000003C0140089E0008F495000808B500F06B
:102D00001F02012393401F2803D8064A5361002065
:102D100008BD0346044A0121044804F0A4FD6FF0F5
:102D20001500F5E7003C0140089E0008F4950008F6
:102D3000002399420ADD10B400EB030C044C04F8A4
:102D40000C2001339942F7DC10BC7047704700BF7C
:102D5000C8000020F8B50746002401E00134E4B2C1
:102D60007B78A34217D93D7866193046FFF7AAFF52
:102D70000028F3D03046FFF7C1FF074B53F8362049
:102D8000002AEBD006F01F0503EBC60359680120AB
:102D9000A8409047E2E7F8BDB80900205FFA81FC3F
:102DA0000CF102020A4B53F822200B0C22EA1141CB
:102DB00093FAA3F34BB1B3FA83F3984001430CF1B8
:102DC000020C034A42F82C1070472023F5E700BF9D
:102DD00000380140C3B20233074A52F82320030CE3
:102DE00002EA104093FAA3F31BB1B3FA83F3D8407D
:102DF00070472023FBE700BF0038014008B50346B9
:102E000068B1B0FA80F2C2F11F02D2B20549885609
:102E1000054A11680B43136004F067FE08BDFF22EA
:102E2000F4E700BFC8000020003C0140024A1368DC
:102E300023EA000313607047003C0140032926D8B1
:102E4000DFE801F0020C151E114B9A6822EA00021D
:102E50009A60DA6822EA0002DA6070470C4B9A68DE
:102E600002439A60DA6822EA0002DA607047084B8F
:102E7000DA680243DA609A6822EA00029A607047D0
:102E8000034B9A6802439A60DA681043D86070472F
:102E9000003C014010B498B1B0FA80F3C3F11F03B5
:102EA000DBB29C460D4850F8330088420AD088B9FE
:102EB0000A4B43F83C1003EBCC035A6010BC70473C
:102EC000FF23EEE7054C04EBC3035B689342EED1AE
:102ED0000020F3E76FF00F00F0E700BFB809002013
:102EE00060B1B0FA80F3C3F11F03DBB2044A0021E2
:102EF00042F8331002EBC30251607047FF23F5E73D
:102F0000B809002070B544681A4B9D682B6843B31C
:102F100004F1080117489847064610BB94F845305D
:102F200013F0010F07D004F11001AB69E3B10022E7
:102F300010489847C0B994F8453013F0020F07D0F5
:102F400004F11801AB6993B100220A48984770B99F
:102F5000236A09494A6822F4403213434B603046E1
:102F600070BD6FF00406FAE76FF00406F7E76FF044
:102F70000406F4E700910008002301402DE9F04128
:102F800047680369D7F80080D3F8A05000260EE008
:102F900004EB44021E3A44EA025297F94230012BF4
:102FA0001AD00123A34025EA03050136F6B225B362
:102FB00095FAA5F4B4FA84F40DB94FF0FF34013456
:102FC000E4B2013CE4B2092CE2D804EB440244EA46
:102FD000025242F00072E0E70C4B53F826104046D4
:102FE00004F099FF0A4B53F82630D8F82C2022F42D
:102FF00070021343C8F82C30D3E7D8F8043043F4F8
:103000008073C8F804300020BDE8F081B0A7000844
:1030100070A700084900036813B19B8903FB0111E5
:10302000C3688B4201D30020704700B583B0009184
:10303000044A0121044804F021FC6FF00B0003B0A6
:103040005DF804FB4C9E0008E495000870B54468E8
:103050002568002300E0013394F940209A4205DD01
:1030600091F810C0A06AC05C8445F4D19A420AD09D
:103070006A6802F04072E16A9E0051F82330934280
:1030800009D1002070BD0B4A01210B4804F0E1FB7F
:103090006FF01500F6E70021284604F00EFF002827
:1030A000F0D1E36A9B596A6822F0407213436B6067
:1030B000E8E700BF749E0008E495000810B5446876
:1030C00021B30A4643F6FF73994221D08B0B032BA1
:1030D0000CD10020072811DC00F1180334F813305C
:1030E00043F44043934210D00130F3E7094A0121F1
:1030F000094804F0AEFB6FF0150006E0074A012115
:10310000054804F0A6FB6FF0150010BD0020FCE799
:103110000720FAE7889E0008E4950008B09E0008A2
:1031200070B50D46446826681146FFF7C7FF0028B2
:1031300017DB94F941303BB1002B19DB013BDBB2CB
:10314000012B15D800200CE0092D0BD805EB450309
:1031500045EA035343F000710246304604F0FCFE9A
:10316000002070BD05EB45031E3B45EA0351F3E724
:10317000034A0121034804F06CFB6FF01500F0E7EF
:10318000D49E0008E495000808B5436893F84530DC
:1031900013F0100F03D10B7913F0200F0DD10B7822
:1031A000092B12D14B78042B17D10B794A8803F0E5
:1031B0001F01FFF7B5FFC0B908BD104A0121104833
:1031C00004F047FB6FF01500F6E70E4A01210C48AA
:1031D00004F03FFB6FF01500EEE70B4A01210848B1
:1031E00004F037FB6FF01500E6E7084A01210448B8
:1031F00004F02FFB6FF01500DEE700BF0C9F000806
:10320000E49500083C9F0008549F0008709F000848
:1032100000B583B0034608309B6F63332CBF4FF07B
:10322000010C4FF0000CC3F31302190D41EA0C31ED
:103230001144114AA2FB01E2D20802EB820202EB26
:1032400082028A1A9B1A6CF1000C0C490C4A03FB8F
:1032500002F201FB0C22A3FB01310A449B0843EA62
:1032600082739208009301920022002302F082FEF2
:1032700003B05DF804FB00BF1F85EB51295C8FC2D2
:10328000F5285C8F2DE9F04107460D464368066935
:10329000D3F800808B68C6F894304868C6F8A00060
:1032A000FDF78EF8C0B286F8A400002386F8A5309A
:1032B0002B7C86F89C30002838D010283ED8294630
:1032C0003846FFF7C3FE041E41DB3846FFF756FEC3
:1032D000041E42DB96F8A4102846FFF79BFE044626
:1032E000002840D16B7C002B43D1AB7C002B48D114
:1032F000404604F0D1FD6FF02003C8F80030D8F844
:10330000083043F48063C8F80830D8F8043043F03C
:103310002003C8F804302946304604F051FE3046F8
:1033200004F07DFE04462046BDE8F081194A0121E3
:10333000194804F08EFA6FF01504F4E71023174AC9
:103340000121154804F08FFA6FF01504EBE7144AD9
:103350000121114804F07DFAE5E7124A01210E48E7
:1033600004F077FADFE7104A01210B4804F071FA04
:10337000D9E70E4A0121084804F06BFA6FF0850482
:10338000D1E70B4A0121044804F063FA6FF0850489
:10339000C9E700BF889F0008E4950008A09F0008C7
:1033A000CC9F0008F09F000810A0000824A000088F
:1033B00040A00008F8B5056946683768C5F8900070
:1033C000FF2385F8A63085F8A730FFF79BFD002185
:1033D000706A04F067FE041E0CDB736803B1984743
:1033E0000121384604F069FD284604F047FE002418
:1033F0002046F8BD14F1020FEFD02346024A012106
:10340000024804F030FAF3E75CA00008E4950008F5
:1034100070B50446066943681D682B6813F0200FD9
:1034200015D12B6813F0020F10D0EA6CD6F8943047
:10343000991CC6F894101A8096F8A5300133DBB2B7
:1034400086F8A53096F8A420934209D070BD6FF09D
:1034500020032B60064A0121064804F0FAF9E0E750
:10346000002386F8A5302146304604F04EFEEDE7F5
:103470007CA00008E495000808B50248FFF7C8FFE3
:1034800008BD00BF889200080C4B1B6813F0020FA8
:1034900009D10A4A136843F001031360074B1B6804
:1034A00013F0020FFAD0054A936823F003039360E8
:1034B000024B9B6813F00C0FFAD1704700380240A2
:1034C0000C4B1A6842F480221A601A6842F4803267
:1034D0001A60084B1B6813F4003FFAD0054A536F7B
:1034E00043F001035367034B5B6F13F0020FFAD0F5
:1034F000704700BF00380240F8B50C461546424BF5
:103500001E680221304604F049FE0746012130467C
:1035100004F044FE2388C3F30B010B46442929D849
:1035200009B2002968D0013B432B68D8DFE803F0DB
:103530003D53565A5D3F49676767676767676767C7
:103540006767676760626767676767676767676717
:10355000676767676767676767676767676767352D
:10356000676767356767673767676767676767397B
:103570006767673BA8290DD12E602368B3F5805F8C
:1035800040D32A68C3F313330133B2FBF3F22A604A
:10359000002036E06FF0850033E02E60EDE72E600E
:1035A000EBE72F60E9E72860E7E72E60E5E700F04A
:1035B000CFF804234FF4A872082104F0E8FD286036
:1035C000DBE700F0C5F807234FF4A872082104F0E8
:1035D000DEFD2860D1E700232B60CEE74FF4FA43ED
:1035E0002B60CAE700232B60C7E7084B2B60C4E7BA
:1035F0002E60C2E72E60C0E76FF0850001E06FF03B
:103600008500F8BD0020FCE71801002000127A00B8
:1036100008B51B4B9B6803F00C03082B27D0184AF6
:10362000136823F080731360154B1B6813F0007F41
:10363000FAD1144AD2F8043823F4403343F48033E7
:10364000C2F80438D2F8043823F0706343F0E06322
:10365000C2F8043800F080F8094A136843F0807318
:103660001360074B1B6813F0007FFAD008BDFFF70B
:103670000BFF034A936823F0F0039360CFE700BF8A
:103680000038024000300240162806D8064BC340DE
:1036900013F0010F04D0002070476FF085007047D1
:1036A0006FF08500704700BFEA00600038B500F099
:1036B00077F8234C204604F0EEFD01F0FFF9214B92
:1036C0009B68C3F30313204AD35C20FA03F51378F5
:1036D0001C41A5422CD3FFF7F3FEFFF799FF194ACF
:1036E000936823F0F0039360936823F0030343F09F
:1036F00002039360134B9B6803F00C03082BF9D172
:10370000A54219D2114B0E4A1A600E4B9A6822F448
:10371000E05242F480529A609A6822F460429A60C1
:10372000D3F88C2022F08072C3F88C20002038BDA2
:10373000204601F031FACEE7204601F02DFAE1E70C
:1037400000BD01050038024094A9000818010020BE
:103750000048704700127A0008B504F09DFD0C4B3C
:1037600059680C4A0A4040F4A84141F008010A4354
:103770005A605A6822F4403242F480325A605968E2
:10378000054A0A40054901430A435A6008BD00BF83
:10379000003802400080BFFF0080BFF008540007DF
:1037A00082B0064B1A6C42F080521A641B6C03F014
:1037B00080530193019B02B0704700BF0038024064
:1037C00010B504460A2806D0E1B2064883685B6853
:1037D0009847204610BD034883685B680D219847D1
:1037E000F2E700BF5092000810B5044C2046FFF7E6
:1037F00031FA2046FDF7FAFB10BD00BFC1370008C3
:1038000008B5054805F00AFA18B1FFF7EDFF0020EA
:1038100008BD6FF01200FBE7509200082DE9F84355
:1038200080460F4616461C46D0F80490D9F808008A
:1038300004F012FBB6F5001F0ED00546B6F5800F5A
:103840002AD0B4F1806F0ED0B4F1C06F0DD0B4F1B6
:10385000007F24D1022609E03946D9F8080004F097
:10386000EFFD002415E0012600E0032642460F4943
:103870002846FFF70FFB0446A0B9D9F808103846D0
:1038800004F0EFFA31462846FFF7D8FA2846FFF74A
:10389000B5FA2046BDE8F8836FF08504F9E76FF0CC
:1038A0001504F6E76FF00F04F3E700BF6383000829
:1038B00010B5402910D007D804290FD010290FD0F7
:1038C00001290FD1002110E0B1F5807F0CD0B1F5B6
:1038D000806F1ED1052108E0032106E0012104E0EC
:1038E000022102E0062100E0042118300A4B13F8FF
:1038F00001C050F80C30094C14F801E0732101FAB2
:103900000EF123EA010302FA0EF2134340F80C30E1
:1039100010BD0621E9E700BFC4A80008BCA8000844
:10392000402912D008D8042912D0102913D0012917
:1039300014D14FF0000C16E0B1F5807F11D0B1F535
:10394000806F1ED14FF0050C0DE04FF0030C0AE024
:103950004FF0010C07E04FF0020C04E04FF0060CB2
:1039600001E04FF0040C036A074911F80CC0022172
:1039700001FA0CF123EA010302FA0CF21343036289
:1039800070474FF0060CEEE7B4A80008402912D0AB
:1039900008D8042912D0102913D0012914D14FF0CE
:1039A000000C16E0B1F5807F11D0B1F5806F1FD10A
:1039B0004FF0050C0DE04FF0030C0AE04FF0010C46
:1039C00007E04FF0020C04E04FF0060C01E04FF06E
:1039D000040C4368084911F80CC04FF4807101FAD7
:1039E0000CF123EA010302FA0CF21343436070471F
:1039F0004FF0060CEDE700BFACA8000810B440295A
:103A000010D007D804290FD010290FD001290FD1C9
:103A1000002210E0B1F5807F0CD0B1F5806F18D195
:103A2000052208E0032206E0012204E0022202E06F
:103A3000062200E004221830074B995C4358074CDB
:103A400014F802C0082202FA0CF21343435010BCCF
:103A500070470622EFE700BFC4A80008BCA8000812
:103A60002DE9F8431E46BDF820C043681C684F1E70
:103A7000032F1DD8B4F1804F05D04148844202D0B5
:103A8000B2F5803F1DD83F4850F82780032921D840
:103A90003D4850F827501CF4807F1DD0EDB90B46EF
:103AA0003A4A01213A4803F0DEFE6FF0150049E082
:103AB0000B46384A0121364803F0D5FE6FF0150059
:103AC00040E01346344A0121314803F0CCFE6FF048
:103AD000850037E00025DEE74546002A34D09B68A4
:103AE000002B37D102F1FF39604604F081FD024618
:103AF00029462046FFF714FF284B53F8273031465C
:103B000020469847C4F82C90236A35EA030334D042
:103B1000602241462046FFF7CBFE00222946204680
:103B2000FFF734FF236A1D432562236843F08003B7
:103B3000236041462046FFF761FF636943F00103BC
:103B400063610020BDE8F883236A23EA050323624A
:103B50000020F7E7102B08D0202B0AD0402B08D0EC
:103B6000602B06D06FF08500ECE7013E02F1FF39D3
:103B7000BAE776084FEA5209B6E70020E2E700BF4D
:103B8000000C00409CA8000890A8000880A1000834
:103B90002C96000824A100083CA1000880A8000879
:103BA0002DE9F04784B000AFD0F810A045682E682A
:103BB0006969AD4BD3F80890D9F80030002B00F0BC
:103BC000A9808046A8489847041EC0F2A580AB692A
:103BD000012B40F2BF8069690831D9F81830002BF9
:103BE00000F0A5800022A04898470446002840F035
:103BF000A08069690831D9F80C30002B00F0A08052
:103C000007F10C0298489847B0F10009C0F29A8079
:103C1000FB68CAF80030DAF80810DAF8040004F09B
:103C2000DEFC0021E86904F0FBFCB0F10009C0F201
:103C300099806B68B3620023F3628C4B9E420ED076
:103C4000B6F1804F0BD0A3F57C439E4207D003F51D
:103C500080639E4203D003F580639E4205D1AB682A
:103C6000326822F0700213433360804B9E421AD0B8
:103C7000B6F1804F17D0A3F57C439E4213D003F5D5
:103C800080639E420FD003F580639E420BD003F504
:103C90009A339E4207D003F580639E4203D003F51A
:103CA00080639E4203D1336823F4407333606F4BCB
:103CB0009E425FD0B6F1804F5ED06D4B9E425BD08E
:103CC00003F580639E4257D003F580639E4253D034
:103CD0002B69002B54D0D8F800106D4600233B729E
:103CE00002237B7288B06B4613F1100253D00E2072
:103CF0001AB1042801DD5F4C5C6100243C71022490
:103D00007C71002A54D0082800DD996103F11C0160
:103D100000244BE06FF057042346574A01215748CF
:103D200003F0A1FD20461037BD46BDE8F0876FF0D7
:103D300057042346524A0121504803F094FDF1E70D
:103D40006FF057094B464F4A01214C4803F08BFD59
:103D50004C46E7E74C4A0121484803F07AFD6FF0F2
:103D60001504DFE74B46494A0121444803F07BFD37
:103D70004C46D7E7002333632969304604F03FFC03
:103D80003A4B9E423ED0EB68002B46D1336843F05D
:103D900001033360C6E76FF00040A9E704F11006A5
:103DA0003E4416F80C6C01F8016B0134012CF5D976
:103DB0000D2824DD0E2442B10321397200217972CD
:103DC000B9720121F972B8681861002121F001016E
:103DD00021F0020121F0040121F03801012363F3F5
:103DE0008811C4F30A0464F35321C1F313010023BF
:103DF0002248FDF735FDAD466FF0850492E76FF080
:103E00001B04D8E7EB68726C22F0FF021343736463
:103E1000736C43F400437364B8E7D8F800106D4640
:103E200001223A7203227A728AB06C4614F11002AF
:103E300017D012204AB10646042803DDDFF850C02F
:103E4000C4F814C0082E00DDA36101233B710323D5
:103E50007B714AB30C2800DDE16104F120030021ED
:103E600020E06FF00040E5E700910008000001400D
:103E7000000400404CA20008A8A100082C960008ED
:103E8000C8A10008E8A1000808A200082CA20008A8
:103E900074A2000801F110063E4416F80C6C03F8F9
:103EA000016B01310129F5D9112824DD122342B11A
:103EB0000421397200217972B9720121F972B8684E
:103EC0002061002121F0010121F0020121F0040113
:103ED00021F03801012060F38811C3F30A0363F372
:103EE0005321C1F3130100230448FDF7B9FCAD468B
:103EF0006FF0850416E76FF01B03D8E72C960008D7
:103F00002DE9F843D0F80480A9B10F46EFF31183EF
:103F1000102282F31288BFF36F8F9946494AD26804
:103F200012F0100F0FD183F31188BFF36F8F6FF072
:103F30003C00BDE8F883444A0121444803F089FC71
:103F40006FF01500F5E73F4804F0B5FB06463D4B22
:103F50001D6825F07F4525F4400525F4004525F032
:103F60008005384B9C6AA4B29B6A9BB29C42F8D1F4
:103F7000344B1B6823F07F4323F4400323F40043B6
:103F800023F08003AB42E2D12E4804F094FBB04210
:103F9000D9D189F31188BFF36F8F06F00F03C6F3F1
:103FA000031202EB820203EB4203DBB264337B6158
:103FB000C6F30323C6F3033202EB820203EB420390
:103FC000DBB2013B3B61C6F30343C6F3035202EB92
:103FD000820203EB4203DBB2FB60360E072E2ED0CB
:103FE000BE61C5F303422B0D03EB830302EB4303D6
:103FF000BB60C5F30323C5F3023202EB820203EB7D
:104000004203DBB27B6005F00F03C5F3021505EB3D
:10401000850503EB4503DBB23B60D8F80420141B95
:1040200000250B4801322B46A4FB0001FCF7AEF93A
:1040300078624FF0FF33FB613B62284679E700234B
:10404000BB61CEE700280040C4A2000834960008F7
:1040500000CA9A3B38B5104BDB6813F0400F16D1FD
:104060000D4B4FF0FF32DA6000F014FD05460A4BAD
:10407000DC6814F0400406D100F00CFD401B074B37
:104080009842F4D900E001241CB1002000E0002097
:1040900038BD6FF07300FBE7002800401F480100A7
:1040A0002DE9F04F83B04B6903F26C73B3F5FA6FEF
:1040B000C0F096808869B0F1FF3F00F0948091F8DD
:1040C00008904A4AA2FB0954E5082C4605EB8505F1
:1040D000A9EB450949EA04195FFA89F90E79A2FBAF
:1040E0000654E5082C4605EB8505A6EB450646EA91
:1040F0000416F6B291F80080A2FB0854E5082C469D
:1041000005EB8505A8EB450848EA04185FFA88F82E
:104110003033DBB2A2FB0354E7083D4607EB8707C9
:10412000A3EB470444EA0514E4B20D690135EDB28E
:10413000A2FB0573DF083B4607EB8707A5EB4705A6
:1041400045EA0315EDB20F7BA2FB0732D3081A46EE
:1041500003EB8303A7EB430747EA0217FFB20028EC
:104160003BD00190EFF3118A102383F31288BFF341
:104170006F8FFCF7A9FF1E4BCA225A6253225A6264
:10418000FFF768FF8346C0B9360246EA094646EAA9
:104190000806174A136823F07F1323F4FE431E43D7
:1041A00016602404019B44EA433444EA05243C435A
:1041B0005168104B0B40234353600D4B6FF080024E
:1041C000DA60FF225A62FCF7A1FF8AF31188BFF37D
:1041D0006F8F584603B0BDE8F08F07230193C1E706
:1041E0006FF0150BF5E76FF0150BF2E7CDCCCCCCEB
:1041F00000280040C00000FF38B544681D4B986897
:104200001A69C2F30E021969C1F30641CA255D623B
:1042100053255D6210F0400F02D16368934224D0B1
:10422000FFF718FF88B9134B9A6822F040029A6092
:10423000626819696FF30E010A431A6121681A69ED
:1042400022F4FE0242EA01421A610A4B6FF0800238
:10425000DA60084B9A6822F408029A609A6842F081
:1042600020029A60FF225A6238BD23688B42D7D160
:104270000020EEE70028004070B54568A9681A4B99
:104280009E683368F3B1044617489847D0B9FCF7E5
:104290001BFFA968CB68FF2B07D00831B369CBB1EE
:1042A000002211489847002814DB104A136F43F48A
:1042B000004313672046FFF79FFF0446FCF726FFE5
:1042C000204670BD0A4A01210A4803F0C2FA6FF085
:1042D0000404F5E7FCF71AFF074A0121054803F03B
:1042E000B8FA6FF00404EBE70091000800380240D0
:1042F000DCA2000834960008F0A2000810B50446BD
:10430000B2F5004F2FD04FF0000C48184CEB0C0CBE
:1043100040184CF1000C4FEACC0C4CEA507CC00029
:1043200040184FEA83024FEA93734CF10001FCF707
:104330002DF82449A1FB00235B091A0192B24FF02A
:10434000640C0CFB13031B013233A1FB0313C3F3F7
:104350004F1303F0F0010A4492B203F00F03134429
:104360009BB2A36010BD4FF0000C48184CEB0C0240
:10437000401842F10002D20042EA5072C0004018D8
:1043800042F10001DA184CEB0C03FBF7FFFF0D497B
:10439000A1FB00235B091A0192B24FF0640C0CFBE5
:1043A0001303DB003233A1FB0313C3F34F13590094
:1043B00001F4F8710A4492B203F0070313449BB26C
:1043C000A360CFE71F85EB5108B5024A04F0DAF984
:1043D00008BD00BFF387000808B5024A04F0ECF9F5
:1043E00008BD00BFF987000810B543681B68DC688A
:1043F000DB6814F4805F03D1054B04F04DFA10BD67
:1044000003F4C063002BF7D16FF08500F7E700BF1E
:10441000EB88000810B543681B68DC68DB6814F49F
:10442000805F03D1054B04F063FA10BD03F4C06351
:10443000002BF7D16FF08500F7E700BF398900083E
:1044400043681A6802F1140353E8003F43F0010384
:1044500002F1140040E800310029F3D10D4B9A42DB
:1044600007D0A3F54C439A4203D003F550439A4238
:1044700003D1136943F04003136102F10C0353E8C5
:10448000003F43F4807302F10C0040E80031002942
:10449000F3D170470010014043681A6802F1140319
:1044A00053E8003F23F0010302F1140040E800311B
:1044B0000029F3D10D4B9A4207D0A3F54C439A4201
:1044C00003D003F550439A4203D1136923F040030C
:1044D000136102F10C0353E8003F23F4807302F1EF
:1044E0000C0040E800310029F3D170470010014072
:1044F00010B543685868196983681B6823B19847E9
:10450000044618B9204610BD6FF05704024A012135
:10451000024803F09EF9F5E724A30008549600082A
:104520002DE9F04184B000AF4368D3F80080002942
:1045300000F0A88005460E46586819698368DB6854
:10454000002B3FD007F10C029847041E3CDBD8F843
:104550000C3023F40043C8F80C30FC68002120190B
:104560004941001941F10001C90041EA5071C00000
:1045700000194FEA86024FEA967341F10001FBF7FA
:1045800005FF424AA2FB00314909642303FB1103E2
:104590001B013233A2FB03235B0903F0F00202EBA1
:1045A000011203F00F0313440F2B13D933460022DB
:1045B00021464046FFF7A2FE002420461037BD46A4
:1045C000BDE8F0816FF05704314A0121314803F012
:1045D00040F9F2E729686D4600233B7202237B72A3
:1045E0008AB06C4614F1100215D012201AB10428BA
:1045F00001DD294B636100233B7102237B71BAB15A
:104600000346082800DDA1610C2B00DDE66104F102
:10461000200300210AE06FF00040E7E701F11006F7
:104620003E4416F80C6C03F8016B01310129F5D9F1
:10463000112824DD122342B104213972002179723C
:10464000B9720121F972B8682061002121F00101DD
:1046500021F0020121F0040121F03801012060F372
:104660008811C3F30A0363F35321C1F31301002339
:104670000848FDF7F5F8AD466FF015049DE76FF0BB
:104680001B03D8E76FF0150497E700BF1F85EB51B8
:1046900044A300085496000874A300082DE9F041D3
:1046A0000C4643681D6803691E680B79012B04D012
:1046B000022B0DD14FF4806801E04FF4C06862799D
:1046C000012A08D0022A08D01ABB4FF4805706E00E
:1046D0004FF00008F3E7002701E04FF4405794F84B
:1046E00006C0BCF1040F17D0CBB94FF0000ED91E95
:1046F000C9B2012952D913B1BCF1040F51D0B7F599
:10470000805F0FD0B7F5405F0ED0002F3BD1012363
:104710000BE04FF40057E2E74FF4805EE7E74FF419
:10472000805EE4E7002300E002239A423CD1BEF120
:10473000000F2AD1B8F1000F2ED103239C4536D1AA
:10474000E37963B1012B35D11F4B9D4207D0A3F50F
:104750004C439D4203D003F550439D422DD1EB685D
:1047600023F40053EB60214604F068F9002827DBAE
:10477000EB6843F40053EB6094E8030086E8030021
:104780000020BDE8F0810323CFE7B8F1000F01D18D
:104790000423D3E70323D1E70223CFE76FF085009B
:1047A000EFE76FF08500ECE76FF08500E9E76FF069
:1047B0008500E6E76FF08500E3E76FF08500E0E74E
:1047C0006FF08500DDE700BF00100140F8B5054639
:1047D0004668346803691F68E36823F40053E360A4
:1047E000B06804F01BFA08B3F168B06803F077FF13
:1047F00004F10C0353E8003F43F00C0304F10C01F7
:1048000041E80032002AF3D13946284604F016F96F
:10481000002813DB337E1BB1636943F00803636137
:10482000E36843F40053E3600020F8BD054A01212A
:10483000054803F00EF86FF01200F6E76FF0150070
:10484000F3E700BF8CA30008549600084FF0E02364
:10485000996918699A6909B90C4B19680AB90B4B1F
:104860001A6810F4803F01D1914208D208490B68C0
:104870000648006803440B604FF0E0231B69034BBC
:104880001B689B1A024A1068184470473C0A0020B3
:10489000380A0020094B102283F82320084B42F2EB
:1048A000D0021A600020074B18604FF0E02342F25C
:1048B000CF025A61986107221A61704700ED00E04B
:1048C0003C0A0020380A0020684620F007018D4687
:1048D00019B5FFF7BBFF12480368124A5168146804
:1048E0001B1941F1000113605160002202600E4962
:1048F0000A68981A0D4BA3FB0030400B42F2D0031C
:1049000000FB03F3D2184B6843F100030A604B60CD
:1049100004F060F9FDF7ECFFBDE8194085467047EB
:10492000380A002090060020880600202D34A9F9BE
:10493000F8B500294DD0B0F1FF3F3FD03F4B1C6888
:1049400001284EDD40F2CD739842A8BF1846461E9E
:10495000EFF31185102383F31288BFF36F8FFFF7F6
:1049600075FF4FF0E0239F69354A13685168C318FB
:1049700041F10001136051600021324A1160324A56
:1049800011685A1A2FD442F2D00000FB062202F519
:1049900003520F322D4EA6FB0262520BC91A00FBC6
:1049A00002110A46B1F5806F38BF4FF48062284B80
:1049B000994236D9214B264A1A6018E04FF0E0227E
:1049C000136923F0010313611C4B4FF07F421A60FF
:1049D00026E01A4B1C68B0F1FF3FB1D140F2CC7019
:1049E000B0E70026B4E7154B4FF480621A604FF031
:1049F000E0239969114A1268013A5A6100229A61CA
:104A00008F4211D2641A3C440D4A136851681B1935
:104A100041F100011360516085F31188BFF36F8F7E
:104A2000F8BD064B1A60E2E77F1A054A1368516821
:104A3000DB1941F1000113605160EDE73C0A0020F1
:104A400090060020380A0020880600202D34A9F99D
:104A5000C0D5FF0038B5EFF31185102383F312881A
:104A6000BFF36F8F084B1C68084B1B68E41AFFF7F5
:104A7000EDFE204485F31188BFF36F8F044BA3FB39
:104A80000030400B38BD00BF900600208806002093
:104A90002D34A9F938B5EFF31185102383F312886B
:104AA000BFF36F8F044B1C68FFF7D0FE204485F3E3
:104AB0001188BFF36F8F38BD9006002008B5334BC7
:104AC0009B6803F00C03042B5BD0082B5BD12F4BAE
:104AD0005A6802F03F025B6813F4800F2CD02B4B16
:104AE0005868C0F388104FEA401CBCEB000C6EEB1A
:104AF0000E0E4FEA8E1343EA9C634FEA8C11B1EB22
:104B00000C0163EB0E03DB0043EA5173C90011EBA8
:104B1000000C43F10003590200234FEA4C2041EA04
:104B2000DC51FBF733FC194B5B68C3F301430133E2
:104B30005B00B0FBF3F008BD144B5868C0F388105D
:104B40004FEA401CBCEB000C6EEB0E0E4FEA8E13CE
:104B500043EA9C634FEA8C11B1EB0C0163EB0E034B
:104B6000DB0043EA5173C90011EB000C43F1000371
:104B7000990200234FEA8C2041EA9C51FBF706FC86
:104B8000D1E70348D7E70348D5E700BF0038024024
:104B900000127A000024F400024600283CD0204B8A
:104BA00019681B6803F44043B3F5004F1BD0002184
:104BB0001B4B1B6803F44043B3F5804F1FD0194AC9
:104BC000136823F007030B4313600222154B1B6885
:104BD00003F00703013A994201D0002AF6D1994225
:104BE0001CD001207047104B984204D80F4B9842BC
:104BF00003D80021DCE70221DAE70121D8E70A4BDC
:104C00009A4200D931B1094B9A42D8D90029D6D15C
:104C10000121D4E70221D2E701207047002070472C
:104C200000700040003C02400087930380C3C9012C
:104C300004280CD8DFE800F0030D0507090006483A
:104C40007047064870470648704706487047064850
:104C500070470648704700BFD4A30008F8A30008B7
:104C600008A4000814A4000824A40008E4A3000871
:104C700030B108B504F032F820B1037823B108BD93
:104C8000024870470148FAE70048F8E734A40008F2
:104C900010B50446FCF700FD034A0121034802F069
:104CA000D8FD204603F0CAFF3CA400081C9600086B
:104CB0002DE9F04782B000AF05460C46EFF31188AE
:104CC000102383F31288BFF36F8FDFF8C491D9F8F4
:104CD0000860FFF7ADFF99F81010E94601233B711A
:104CE00003237B718AB0EC461CF1100221D04FF0F7
:104CF000160E5AB17346BEF1040F03DDDFF894A11E
:104D0000CCF814A0082B01DDCCF8185001233B701F
:104D100003237B70D2B17346BEF10C0F01DDCCF8DA
:104D20001C00102B01DDCCF820100CF12403002115
:104D30000AE06FF0004EDCE701F10800384410F89B
:104D4000080C03F8010B01310129F5D9BEF1150F4B
:104D500050DD16234AB10521397100217971B971ED
:104D60000121F9717868CCF81000002121F00101CF
:104D700021F0020121F0040121F03801012060F34B
:104D80008811C3F30A0363F35321C1F31301002312
:104D90004148FCF765FDCD461CB1E369C3F3080348
:104DA0005BBB3046FFF764FFE94601233B710323F9
:104DB0007B718AB0EC461CF1100224D04FF0120E29
:104DC00052B17346BEF1040F02DD3449CCF8141021
:104DD000082B01DDCCF8186001233B7003237B70A6
:104DE000F2B1BEF10C0F01DDCCF81C000CF1200378
:104DF000002113E06FF01B03ACE7294A012126488C
:104E000002F027FDCDE76FF0004ED9E701F1080071
:104E1000384410F8080C03F8010B01310129F5D9C9
:104E2000BEF1110F31DD12234AB104213971002185
:104E30007971B9710121F9717868CCF810000021FD
:104E400021F0010121F0020121F0040121F03801DB
:104E5000012060F38811C3F30A0363F35321C1F304
:104E6000130100230C48FCF7FBFCCD4621462846E5
:104E7000FFF70EFF88F31188BFF36F8F3046FDF701
:104E800047FD0837BD46BDE8F0876FF01B03CBE751
:104E9000400A00204CA400081C96000898A40008B2
:104EA00074A4000810B586B0B023114C03FB004475
:104EB00000EB400C00EB80000E4B03EB80030E4A2E
:104EC0000592012204920F22039200220292019283
:104ED00000930A4B4FF4A072094901EBCC11204614
:104EE00000F0A4F9237C23F00403237406B010BD62
:104EF00098060020400A0020B0A400084D8C00084D
:104F00000016002038B505460B4B53F8204002E050
:104F10002368984708346B1C074A52F82330A34291
:104F200009D960680028F3D0037E13F0010FF1D196
:104F300003F05BFEEEE738BDA4A9000808B553EA0C
:104F4000020102D100F0BCFC08BD0249183000F09B
:104F500063FEF9E7A78E000810B586B0184C14E080
:104F6000636A0593236A0493E3690393A369029335
:104F70006369019323690093E368A268616820680C
:104F800000F054F923685C6530340E4B9C42E7D343
:104F900000F07CFB0A4C03E02068FFF7CFFF3034C1
:104FA000084B9C4208D2A26AE36AB3F1FF3F08BFF4
:104FB000B2F1FF3FF3D0EFE700F080FB06B010BD89
:104FC0002C9500082C95000808B50A4B01221A7090
:104FD0000320FFF797FF01F03DF80420FFF792FF51
:104FE000FFF7BAFF04F028F8034A938923F001037E
:104FF000938108BD770A00204807002008B50146C4
:10500000014A0248FDF74EFCC94F0008480700203E
:1050100010B50446FFF746FFB0230B4903FB04110C
:105020000A4A04EB840302EB8303D9601C7404EB8B
:105030004411074B03EB811303F5046304EB840471
:1050400002EB8402536010BD98060020400A002045
:10505000C00D002070B586B000F062FB104D114B02
:105060005D61114B05930123049300240394029482
:10507000019400940D4B4FF480620D49284600F0D6
:10508000D5F806462B7C23F004032B74284603F046
:10509000B5FE2046FFF7BCFF304606B070BD00BF2E
:1050A00048070020400A0020B8A40008C94F0008A3
:1050B0008017002008B50020FFF724FF194B83F369
:1050C0000888194C636943F400736361F02384F822
:1050D00022300023E37723766376A37684F82030AA
:1050E000636A43F4E0236362FDF702FBFDF7FAFB1A
:1050F0004FF0FF33A362E362FDF748FDFDF784FC48
:10510000FCF710FA094800F0F3F8FCF73BF801202F
:10511000FFF7F8FE0220FFF7F5FEFFF79BFFFFF712
:105120006DFF00BF0016002000ED00E0F807002032
:1051300070B5EFF31186102383F31288BFF36F8FDE
:105140000468A0421AD0CCB16268236813605A6028
:10515000002525606560237C23F002032374A5608D
:1051600004F1180003F015FFC4F8AC50204603F01A
:1051700045FE3146084803F0D2FE70BD8368C26820
:10518000934207D001221344836086F31188BFF352
:105190006F8FF2E70022F6E7640A002010B582B0B4
:1051A000EFF31181102484F31288BFF36F8F8468AA
:1051B00044B1013C846081F31188BFF36F8F0020FC
:1051C00002B010BD53EA020406D0009201930246D9
:1051D000054800F03FFAF3E781F31188BFF36F8FC2
:1051E0006FF00F00ECE700BF640A002008B553EA37
:1051F000020102D100F064FB08BD0249183000F042
:105200000BFDF9E7A78E000810B5044640B11F2238
:1052100004F1740000F07EFF002084F8930010BDBC
:10522000014B9C68F3E700BF400A00202DE9F04FD6
:1052300085B004460F4615461E46DDF838A0DDF859
:105240003C90DDF84080DDF84CB000F158038365F8
:10525000C365129B0422119903F042FD2A46394688
:10526000204603F00FFD0546CDF80880CDF80490E8
:10527000CDF800A03346024639462046FDF7F0FA45
:10528000002363652666C4F864A0C4F86890C4F877
:105290006C80EFF31182102383F31288BFF36F8FBA
:1052A000124B196A21671C6282F31188BFF36F8F5A
:1052B000BBF1000F13D01F22594604F1740000F017
:1052C00029FF002384F89330084B9B685BB1D3F827
:1052D000A030C4F8A030284605B0BDE8F08F002308
:1052E00084F87430F0E7C4F8A030F4E7400A0020F6
:1052F0000123037483810023C0F89430C0F89830F0
:10530000C0F8A030014B9860704700BF400A0020F1
:105310000A4A9368C3F8A8006FF00A01C3F8AC10FA
:1053200007494B6843F080534B60002383F3118897
:10533000BFF36F8F9368D3F8AC007047400A00202A
:1053400000ED00E0084681B908B5EFF305833BB9ED
:10535000084B5A699B689A4202D0FFF7D9FF03E0D5
:1053600080F31188BFF36F8F08BD81F31188BFF3FD
:105370006F8F7047400A0020037C90F91020002AAC
:105380004EDB13F01F0F4BD110B563F07F03037496
:10539000244A52F8183F93423AD07BB190F90E104C
:1053A00093F90E20914202D0521A002A27DC1946A6
:1053B0001C4AD269934201D01B6833BB194BDA698E
:1053C00003F11801016042601060D861154B53F879
:1053D000184F9C421ED0ECB1124B9B681A7C12F005
:1053E0001F0F04D1DA897F2A01D9A269AAB1A34289
:1053F00002D0204600F076FB0A4B5C6110BD5A6873
:105400004260036010605860E0E70029C5D1D5E72D
:105410000023C2E7034BDC68DEE7024A5361EDE795
:10542000704700BF400A002010B5037C90F910209F
:10543000002A19DB154B9A6853F8184F9C421ED06E
:10544000ECB1824208D0137C13F01F0F04D1D38932
:105450007F2B01D9A369ABB1A24202D0204600F054
:1054600041FB0A4B5C6110BD03F07F03037442688B
:10547000036813605A60002303604360DAE7034B5C
:10548000DC68DEE7014B5A61EDE700BF400A00200F
:105490002DE9F84305460C46424B9E68337C13F0D9
:1054A000600F2BD013F0200F2DD008271F4225D1DD
:1054B0003B43337413F0800F27D1082F30D04FF0C7
:1054C0000009384B53F8188F98454FD0B8F1000FAA
:1054D0004CD0344B9B68434502D0404600F002FB61
:1054E000304BC3F81480102F08D0304602F012FB66
:1054F000304600F051FBB9F1000F3BD184F3118825
:10550000BFF36F8F47E01027D0E703F07F033374BA
:105510007268336813605A60002333607360CCE7AD
:10552000B3685BB17268336813605A6000233360FC
:105530007360327C22F002023274B36006F118000C
:1055400003F027FD06F1580003F029FC154B9B687A
:105550009E4202D04FF00009B3E7EFF3058313B981
:105560004FF00009ADE74FF00109AAE70D4BD3F862
:105570000C80AEE70C48FFF7BBFEBFE7EFF31184EA
:10558000102383F31288BFF36F8F03F06AFB84F359
:105590001188BFF36F8F2B7C13F0600FEED1BDE845
:1055A000F88300BF400A0020F8070020B3F1FF3F56
:1055B00008BFB2F1FF3F00D1704708B5024918306B
:1055C00000F02AFB08BD00BFA78E000810B5204BD5
:1055D0009A68DB699A4205D01368516812680A60BC
:1055E000516006E00023F8E7194AD269934212D0CD
:1055F0001B6883B1164A906890F90E1093F90E203B
:105600009142F1D0521A002AEEDD5A6842600360DE
:105610001060586008E00E4B9A68D96903F11800D1
:10562000106051600A60DA61094B53F8184F9C42D0
:105630000AD04CB1064B9B689C4202D0204600F039
:1056400051FA034B5C6110BD014BDC68F2E700BF0F
:10565000400A002010B50C4611460A4882680A4BE1
:105660001A60EFF31183102383F31288BFF36F8F57
:10567000DDE90223806803F0B5FB2046FFF748FE12
:1056800010BD00BF400A0020640A00200023EFF391
:105690001181102282F31288BFF36F8F09E0064B4D
:1056A0009A68D37B013BD37381F31188BFF36F8F6B
:1056B0000123002BF3D07047400A002038B5EFF3E8
:1056C0001185102383F31288BFF36F8F124B9A68F2
:1056D000D17B0131D17353F8184F9C4215D0A4B13E
:1056E000137C13F01F0F04D1D3897F2B01D9A36939
:1056F00073B1944202D0204600F0F4F9064B5C618D
:1057000029460648FFF71EFE38BD034BDC68E7E775
:10571000014B5A61F4E700BF400A0020640A0020F0
:1057200008B5024803F0FFFB08BD00BF540A002083
:1057300038B5EFF31184102383F31288BFF36F8F12
:10574000214B9A68DB699A4205D013685168126848
:105750000A60516006E00023F8E71B4AD2699342D1
:1057600012D01B6883B1184A906890F90E1093F913
:105770000E209142F1D0521A002AEEDD5A684260A2
:1057800003601060586008E00F4B9A68D96903F114
:105790001800106051600A60DA610B4B53F8185F13
:1057A0009D420DD065B1084B9B689D4202D02846B2
:1057B00000F098F9044B5D612046FFF7A9FD38BD64
:1057C000014BDD68EFE700BF400A0020F8B551EA61
:1057D000000328D005460C46EFF31187102383F30E
:1057E0001288BFF36F8F154EB068154B1860FFF726
:1057F0001BFEB0682A4623461249183000F00CFA06
:105800000446B268137C43F0040313743846FFF770
:105810007FFDB3689A6ADB6AB3F1004F08BF002AC4
:1058200005D00020F8BDFFF783FF0020FAE703F062
:10583000EFFB201A0028F5DC0020F3E7400A0020E7
:10584000640A0020A78E000838B504460D46FFF70D
:10585000BDFF03462046B5F1FF3F08BFB4F1FF3F4F
:1058600028D0DA1713F1090042F100030021C21811
:1058700021D20A441149A1FB024525F0030404EB9F
:105880009504121B801A63F100034FF0CC3200FB29
:1058900002F201FB0322A0FB01010A44430843EA90
:1058A000C27352081846B3F1004F72F1000201D3DF
:1058B0006FF0004038BD0121DBE700BFCDCCCCCC80
:1058C00038B5EFF31185102383F31288BFF36F8F80
:1058D000037C13F0040F04D185F31188BFF36F8F9D
:1058E00038BD0446183003F054FB237C23F0040336
:1058F00023742046FFF740FD29460248FFF722FDAA
:10590000EEE700BF640A0020014B9868704700BFB3
:10591000400A00202DE9F843838903F00107EFF3E3
:105920001186102383F31288BFF36F8F057C15F067
:10593000080F1AD10446B14600F1580803F0FDF9EA
:1059400010B345F020052574EFF305839BB1314674
:105950002046FFF79DFD67B1002383F31188BFF355
:105960006F8F0423184602DF03E086F31188BFF32C
:105970006F8FBDE8F88341463F4B986803F0DFF92D
:105980003046FFF7C5FCE6E745F00803237413F043
:10599000800F36D1A3685BB16268236813605A60D8
:1059A000002323606360227C22F002022274A36041
:1059B00004F1180003F0EDFA404603F0F0F92E4B25
:1059C0009A6894422AD000262B4B53F8185F9D42C8
:1059D0002BD055B3AA4202D0284600F083F8264BBC
:1059E0005D61204602F096F8204600F0D5F8FEB939
:1059F000214B9B689C421FD089F31188BFF36F8FA6
:105A0000A9E705F07F0545F008052574626823685D
:105A100013605A60002323606360BBE7EFF30583E4
:105A20000BB90026D0E70126CEE7134BDD68D1E79E
:105A30001248FFF75DFCDBE7EFF30583002BDBD1BA
:105A4000A38913F0010F12D089F31188BFF36F8F70
:105A5000002383F31188BFF36F8F0423184602DFFE
:105A6000EFF31189102383F31288BFF36F8F484639
:105A7000FFF74EFC6FE700BF400A0020F807002048
:105A80000346027C12F01F0F10D10B4A90420FD038
:105A90000A4A106878B1DA897F2A0BD893F90E2068
:105AA000074B1B689A4206DA0020704700207047B7
:105AB0000020704700207047980600201C0100203D
:105AC0006C0A0020044BC01AC010044B03FB00F00A
:105AD000034B01221A547047A8080020ABAAAAAAB7
:105AE000680A002070B50C4B1E7CFFF7C9FF044606
